:020000040000FA
:040000003CEF00F0E1
:06000800738259ED1DF0AA
:100018007380D8CF07F0E8CF08F0E0CF09F0D9CF48
:100028000AF0DACF0BF09EAA1CEF00F01EEF00F0EA
:1000380030EF00F0ABA223EF00F025EF00F02AEF3D
:1000480000F0AB9800F0AB882AEF00F0BBEC1CF096
:1000580030EF00F030EF00F00BC0DAFF0AC0D9FF34
:1000680009C0E0FF08C0E8FF07C0D8FF7390100080
:0400780040EF1DF048
:100600000048656C6C6F20006D6F646531006D6F24
:1006100064653200776F726C6400636C65617200B0
:10062000494E46004E414E00696E66006E616E0096
:090630006C66002566007A0000EA
:10063A00000E00019B6F000E9A6F41C0ACF042C0E1
:10064A00ADF043C0AEF044C0AFF0AFBF31EF03F03E
:10065A002FEF03F049EF03F0000E9B6F010E9A6F24
:10066A00ACC00CF0ADC00DF0AEC00EF0AFC00FF0D4
:10067A0002EC1DF00CC0ACF00DC0ADF00EC0AEF037
:10068A000FC0AFF049EF03F0000E0001B36F000E88
:10069A00B26F6BC09FF06CC0A0F09A519B11D8A4A6
:1006AA0059EF03F05BEF03F064EF03F06FA460EF20
:1006BA0003F062EF03F088EF03F064EF03F09A515E
:1006CA009B11D8A46BEF03F06DEF03F073EF03F007
:1006DA00000E856F2B0E846F79EF03F0000E856F85
:1006EA002D0E846F79EF03F0000EB225D96E010E3C
:1006FA00B321DA6E84C0DFFFB24BB32B9F07D8A0B9
:10070A00A00788EF03F0ACC00CF0ADC00DF0AEC08E
:10071A000EF0AFC00FF097EC16F00C040D10D8A431
:10072A0099EF03F09BEF03F005EF04F0BF0E466E5E
:10073A00FF0E476E4550486E496A46504826475054
:10074A00492249500AE11A0E485CD8A0AFEF03F0DB
:10075A00B2EF03F0010EB3EF03F0000E0001866F53
:10076A00876BC3EF03F045C00CF00D6A22EC1DF055
:10077A000CC086F00DC087F0C3EF03F0000186516C
:10078A008711D8B4CBEF03F0CDEF03F0DBEF03F022
:10079A00000EB2250E6E010EB3210F6E200E106EE2
:1007AA00060E116EB3EC1BF0EAEF03F0000E000127
:1007BA00B2250E6E010EB3210F6E280E106E060EB4
:1007CA00116EB3EC1BF0EAEF03F00001FD0E9F2758
:1007DA00FF0EA0233FC01CF040C01DF0000E1E6E8D
:1007EA00010E1F6E9FC020F0A0C021F0D6EC19F0B8
:1007FA001CC03FF01DC040F0AEEF09F0AEEF09F0AB
:10080A00ACC00CF0ADC00DF0AEC00EF0AFC00FF032
:10081A0097EC16F00C500D10D8A416EF04F018EF50
:10082A0004F082EF04F0BF0E466EFF0E476E45508D
:10083A00486E496A465048264750492249500AE1BB
:10084A001A0E485CD8A02CEF04F02FEF04F0010E2A
:10085A0030EF04F0000E0001886F896B40EF04F05E
:10086A0045C00CF00D6A22EC1DF00CC088F00DC0DA
:10087A0089F040EF04F0000188518911D8B448EF9B
:10088A0004F04AEF04F058EF04F0000EB2250E6EA1
:10089A00010EB3210F6E240E106E060E116EB3EC0C
:1008AA001BF067EF04F0000E0001B2250E6E010E78
:1008BA00B3210F6E2C0E106E060E116EB3EC1BF0E8
:1008CA0067EF04F00001FD0E9F27FF0EA0233FC033
:1008DA001CF040C01DF0000E1E6E010E1F6E9FC060
:1008EA0020F0A0C021F0D6EC19F01CC03FF01DC0CA
:1008FA0040F0AEEF09F0AEEF09F0000E0001B46F60
:10090A00000EB56F800EB66F3F0EB76F000EB16F57
:10091A00000EB06FACC00CF0ADC00DF0AEC00EF062
:10092A00AFC00FF0000E106E000E116E000E126EA8
:10093A00000E136E9EEC1AF0D8B0A6EF04F0A8EFE2
:10094A0004F037EF05F0CBEF04F0CBEF04F0B4C0BE
:10095A001AF0B5C01BF0B6C01CF0B7C01DF0000EEF
:10096A001E6E000E1F6E200E206E410E216E71EC5F
:10097A000CF01AC0B4F01BC0B5F01CC0B6F01DC014
:10098A00B7F00001B04BB12BCBEF04F0ACC033F0A1
:10099A00ADC034F0AEC035F0AFC036F0000E1E6EFA
:1009AA00000E1F6E200E206E410E216EB4C01AF08A
:1009BA00B5C01BF0B6C01CF0B7C01DF071EC0CF04E
:1009CA001AC037F01BC038F01CC039F01DC03AF00D
:1009DA0099EC14F0D8B0F4EF04F0F6EF04F0ACEFB1
:1009EA0004F01AEF05F01AEF05F0B4C00CF0B5C028
:1009FA000DF0B6C00EF0B7C00FF0000E106E000E6C
:100A0A00116E200E126E410E136EA8EC0EF00CC081
:100A1A00B4F00DC0B5F00EC0B6F00FC0B7F00001CB
:100A2A00B007D8A0B1071AEF05F0ACC033F0ADC0DB
:100A3A0034F0AEC035F0AFC036F0B4C037F0B5C050
:100A4A0038F0B6C039F0B7C03AF099EC14F0D8A033
:100A5A0031EF05F033EF05F0FAEF04F037EF05F068
:100A6A0037EF05F045C012F0136A3EEC1BF0125046
:100A7A000001A16FA1C09EF0670EA119D8A448EF8A
:100A8A0005F04AEF05F074EF05F06D506E10D8A42A
:100A9A0051EF05F053EF05F059EF05F0000E6E6EB9
:100AAA00010E6D6E59EF05F06EBE66EF05F06E50E1
:100ABA0006E16D04D8B064EF05F066EF05F06CEF5F
:100ACA0005F0000E9D6F060E9C6F89EF05F06DC054
:100ADA009CF06EC09DF089EF05F089EF05F06EBEBF
:100AEA0079EF05F07BEF05F081EF05F06DC09CF022
:100AFA006EC09DF089EF05F0000E9D6F060E9C6F8B
:100B0A0089EF05F089EF05F0670EA119D8A490EFD7
:100B1A0005F092EF05F0C5EF05F0B1AFA0EF05F0D3
:100B2A00FC0EB05DFF0EB159D8A09EEF05F0A0EF04
:100B3A0005F0BFEF05F0FF0E466EFF0E476E9CC034
:100B4A0048F09DC049F04650482647504922B051C6
:100B5A00485C4950800A4A6EB151800A4A58D8A066
:100B6A00B9EF05F0BBEF05F0BFEF05F0660E9E6F1B
:100B7A00C5EF05F0650E9E6FC5EF05F0C5EF05F0F0
:100B8A009CC094F09DC095F0670EA119D8A4D0EF2F
:100B9A0005F0D2EF05F0E4EF05F0660E9E19D8A431
:100BAA00D9EF05F0DBEF05F0E8EF05F0B1BFE2EFB2
:100BBA0005F0E0EF05F0E8EF05F0E4EF05F0944BFF
:100BCA00952BE8EF05F0660E9E19D8A4EFEF05F015
:100BDA00F1EF05F017EF06F0B1BFF8EF05F0F6EF09
:100BEA0005F006EF06F0000EB46F000EB56F800E2A
:100BFA00B66F3F0EB76F000EB16F000EB06F06EF03
:100C0A0006F0670EA119D8B40DEF06F00FEF06F043
:100C1A0017EF06F0B0519427B151952317EF06F05C
:100C2A0017EF06F0000EAB6F000EAA6FACC0A2F071
:100C3A00ADC0A3F0AEC0A4F0AFC0A5F0B4C080F0C0
:100C4A00B5C081F0B6C082F0B7C083F0AAEF06F053
:100C5A00A2C00CF0A3C00DF0A4C00EF0A5C00FF006
:100C6A00B4C010F0B5C011F0B6C012F0B7C013F09E
:100C7A00A8EC0EF00CC025F00DC026F00EC027F02F
:100C8A000FC028F092EC12F025C0A6F026C0A7F0FB
:100C9A0027C0A8F028C0A9F0A6C00CF0A7C00DF084
:100CAA00A8C00EF0A9C00FF04DEC15F00CC098F0DA
:100CBA000DC099F0A2C033F0A3C034F0A4C035F03F
:100CCA00A5C036F0B4C01EF0B5C01FF0B6C020F003
:100CDA00B7C021F0A6C01AF0A7C01BF0A8C01CF02C
:100CEA00A9C01DF071EC0CF01AC037F01BC038F027
:100CFA001CC039F01DC03AF096EC1CF033C0A2F0CB
:100D0A0034C0A3F035C0A4F036C0A5F0B4C00CF0CE
:100D1A00B5C00DF0B6C00EF0B7C00FF0000E106EE1
:100D2A00000E116E200E126E410E136EA8EC0EF01C
:100D3A000CC0B4F00DC0B5F00EC0B6F00FC0B7F0DD
:100D4A000001AA4BAB2BAAEF06F09451AA5DAB5156
:100D5A00800A466E9551800A4658D8A0B7EF06F029
:100D6A00B9EF06F02DEF06F0BBEF06F0B4C01AF0AB
:100D7A00B5C01BF0B6C01CF0B7C01DF0000E1E6E49
:100D8A00000E1F6EA00E206E400E216E71EC0CF04C
:100D9A001AC0A6F01BC0A7F01CC0A8F01DC0A9F07D
:100DAA00A2C033F0A3C034F0A4C035F0A5C036F019
:100DBA00A6C037F0A7C038F0A8C039F0A9C03AF0E9
:100DCA0099EC14F0D8B0ECEF06F0EEEF06F0F9EF7C
:100DDA0006F0000E0001A66F000EA76F000EA86FA6
:100DEA00000EA96F26EF07F0A2C00CF0A3C00DF009
:100DFA00A4C00EF0A5C00FF0A6C010F0A7C011F055
:100E0A00A8C012F0A9C013F09EEC1AF0D8A010EFF7
:100E1A0007F012EF07F026EF07F0000198B118EF7C
:100E2A0007F01AEF07F026EF07F0000EA66F000E84
:100E3A00A76F000EA86F000EA96F26EF07F026EF26
:100E4A0007F0ACC00CF0ADC00DF0AEC00EF0AFC0F4
:100E5A000FF0A6C010F0A7C011F0A8C012F0A9C0E8
:100E6A0013F0AFEC09F00CC0A2F00DC0A3F00EC055
:100E7A00A4F00FC0A5F080C0B4F081C0B5F082C064
:100E8A00B6F083C0B7F0650E00019E19D8B450EFD2
:100E9A0007F052EF07F058EF07F0B0C096F0B1C074
:100EAA0097F05CEF07F0000E976F000E966F000E3A
:100EBA00936F000E926F000E916F000E906F000EEE
:100ECA00AB6F000EAA6F62EF08F0A2C00CF0A3C0CD
:100EDA000DF0A4C00EF0A5C00FF0B4C010F0B5C05C
:100EEA0011F0B6C012F0B7C013F0A8EC0EF00CC0A7
:100EFA0025F00DC026F00EC027F00FC028F092ECA6
:100F0A0012F025C0A6F026C0A7F027C0A8F028C076
:100F1A00A9F0A6C00CF0A7C00DF0A8C00EF0A9C099
:100F2A000FF04DEC15F00CC098F00DC099F06FB8A9
:100F3A00A1EF07F0A3EF07F0C1EF07F00001985106
:100F4A009911D8A4ABEF07F0ADEF07F0C1EF07F0A6
:100F5A00670EA119D8A4B4EF07F0B6EF07F0C1EFF6
:100F6A0007F097BFBDEF07F0BBEF07F0C1EF07F03F
:100F7A00904B912B14EF08F0000192519311D8A4D1
:100F8A00C9EF07F0CBEF07F0F9EF07F097BFD2EF01
:100F9A0007F0D0EF07F0F9EF07F0000EB225D96E8F
:100FAA00010EB321DA6E2E0EDF6EB24BB32B9F0702
:100FBA00D8A0A007000E936F010E926FF9EF07F009
:100FCA00F9EF07F0000EB225D96E010EB321DA6EE1
:100FDA00300EDF6EB24BB32B9F07D8A0A007900745
:100FEA00D8A09107F9EF07F090519111D8A400EF1A
:100FFA0008F002EF08F0E7EF07F004EF08F0000E40
:10100A00B225D96E010EB321DA6E9851300FDF6E18
:10101A00B24BB32B9F07D8A0A00714EF08F0A2C0C9
:10102A0033F0A3C034F0A4C035F0A5C036F0B4C084
:10103A001EF0B5C01FF0B6C020F0B7C021F0A6C0A0
:10104A001AF0A7C01BF0A8C01CF0A9C01DF071ECD3
:10105A000CF01AC037F01BC038F01CC039F01DC0A4
:10106A003AF096EC1CF033C0A2F034C0A3F035C0BD
:10107A00A4F036C0A5F0B4C00CF0B5C00DF0B6C0EF
:10108A000EF0B7C00FF0000E106E000E116E200E9B
:10109A00126E410E136EA8EC0EF00CC0B4F00DC027
:1010AA00B5F00EC0B6F00FC0B7F000019607D8A091
:1010BA009707AA4BAB2B62EF08F09451AA5DAB518C
:1010CA00800A466E9551800A4658D8B06FEF08F0EC
:1010DA0071EF08F083EF08F0B3BF7DEF08F0B3516A
:1010EA0009E14B0EB25DD8A07DEF08F07FEF08F062
:1010FA006AEF07F083EF08F083EF08F0925193113B
:10110A00D8A48AEF08F08CEF08F09FEF08F06FA8D8
:10111A0091EF08F093EF08F09FEF08F0000EB22568
:10112A00D96E010EB321DA6E2E0EDF6EB24BB32BDF
:10113A009FEF08F0000EB225D96E010EB321DA6EC8
:10114A00000EDF6E650E9E19D8A4AEEF08F0B0EF60
:10115A0008F09AEF09F0000EAB6F4F0EAA6F000E5F
:10116A00AA25D96E010EAB21DA6E000EDF6E000ED3
:10117A009B6F000E9A6FB1BFC7EF08F0C5EF08F07A
:10118A00D1EF08F0000E9B6F010E9A6FB06DB11F80
:10119A00D8B0B12BD1EF08F0000E9D6F020E9C6FF4
:1011AA0004EF09F0AA07D8A0AB07000EAA25D96E4A
:1011BA00010EAB21DA6EB0C00CF0B1C00DF0000E1A
:1011CA000F6E0A0E0E6EFEEC18F00C50300FDF6E2A
:1011DA00B0C00CF0B1C00DF0000E0F6E0A0E0E6E0C
:1011EA0019EC18F00CC0B0F00DC0B1F000019C076A
:1011FA00D8A09D079F07D8A0A00704EF09F0B05117
:10120A00B111D8A40BEF09F00DEF09F0D7EF08F0F0
:10121A009DBF1AEF09F09D5106E19C05D8B018EF61
:10122A0009F01AEF09F0D7EF08F01CEF09F0AA0746
:10123A00D8A0AB079A519B11D8A426EF09F028EF42
:10124A0009F02EEF09F0000E8B6F2B0E8A6F34EF28
:10125A0009F0000E8B6F2D0E8A6F34EF09F0000E25
:10126A00AA25D96E010EAB21DA6E8AC0DFFF9F076D
:10127A00D8A0A007AA07D8A0AB07BF0E466EFF0EDC
:10128A00476E4550486E496A46504826475049229B
:10129A0049500AE11A0E485CD8A056EF09F059EFF6
:1012AA0009F0010E5AEF09F0000E8E6F8F6B69EF8D
:1012BA0009F045C00CF00D6A22EC1DF00CC08EF04E
:1012CA000DC08FF069EF09F000018E518F11D8A47B
:1012DA0071EF09F073EF09F079EF09F0000E8D6FE5
:1012EA00650E8C6F7FEF09F0000E8D6F450E8C6FC7
:1012FA007FEF09F0000EAA25D96E010EAB21DA6E36
:10130A008CC0DFFF9F07D8A0A007000EB2250E6E83
:10131A00010EB3210F6E000EAA25106E010EAB212D
:10132A00116EB3EC1BF09AEF09F03FC01CF040C0FD
:10133A001DF0000E1E6E010E1F6E9FC020F0A0C091
:10134A0021F0D6EC19F01CC03FF01DC040F0AEEF02
:10135A0009F012000F50800B1C6E0F500F241E6EE6
:10136A000EAEBAEF09F0BCEF09F0BFEF09F01E802C
:10137A00BFEF09F01E50D8B4C5EF09F0C7EF09F066
:10138A00DEEF09F01E28D8A4CDEF09F0CFEF09F05F
:10139A00D9EF09F0000E0C6E000E0D6E000E0E6EE7
:1013AA00000E0F6ED9EF09F00E8E000E0F6EE8EFE9
:1013BA0009F0000E0C6E000E0D6E000E0E6E000E81
:1013CA000F6EE8EF09F01350800B1D6E1C501D18AC
:1013DA00D8B4F2EF09F0F4EF09F0F7EF09F01C8C3A
:1013EA00F7EF09F0135013241D6E12AEFFEF09F048
:1013FA0001EF0AF004EF0AF01D8004EF0AF01D5015
:10140A00D8B40AEF0AF00CEF0AF023EF0AF01D280D
:10141A00D8A412EF0AF014EF0AF01EEF0AF0000E39
:10142A00106E000E116E000E126E000E136E1EEF7D
:10143A000AF0128E000E136E2DEF0AF0000E106ED7
:10144A00000E116E000E126E000E136E2DEF0AF0D2
:10145A001E501D5CD8B034EF0AF036EF0AF061EF87
:10146A000AF01CAC3BEF0AF03DEF0AF041EF0AF03C
:10147A00800E1C1A41EF0AF01EC01FF01DC01EF09C
:10148A001FC01DF00CC01FF010C00CF01FC010F0E0
:10149A000DC01FF011C00DF01FC011F00EC01FF0DB
:1014AA0012C00EF01FC012F00FC01FF013C00FF0D1
:1014BA001FC013F061EF0AF0000E1F6E1E50146E6B
:1014CA00156A141E151E144A152A1D50166E176A1F
:1014DA00145016261550172217BE7DEF0AF0175022
:1014EA0009E11A0E165CD8A07DEF0AF07FEF0AF028
:1014FA00BCEF0AF00C500D100E100F10D8A488EF94
:10150A000AF08BEF0AF0010E8CEF0AF0000E1F6E44
:10151A00000E0C6E000E0D6E000E0E6E000E0F6E9B
:10152A001DC01EF0C7EF0AF0BCEF0AF01FA0A0EF23
:10153A000AF0A2EF0AF0A8EF0AF0D8901F300109CA
:10154A001F6EACEF0AF0D8901F32ACEF0AF00CA075
:10155A00B1EF0AF0B3EF0AF0B6EF0AF01F8EB6EF5A
:10156A000AF00F340F320E320D320C321E2A1D5081
:10157A001E5CD8A0C3EF0AF0C5EF0AF09BEF0AF091
:10158A00C7EF0AF01CBCCCEF0AF0CEEF0AF016EF58
:10159A000BF01E50D8A4D4EF0AF0D6EF0AF0E2EF0F
:1015AA000AF0000E0C6E000E0D6E000E0E6E000E8E
:1015BA000F6E70EF0CF070EF0CF010500C261150FB
:1015CA000D2212500E2213500F220FA0EFEF0AF035
:1015DA00F1EF0AF0C6EF0BF01FA0F6EF0AF0F8EFF2
:1015EA000AF0FEEF0AF0D8901F3001091F6E02EFD1
:1015FA000BF0D8901F3202EF0BF00CA007EF0BF0A4
:10160A0009EF0BF00CEF0BF01F8E0CEF0BF00F3401
:10161A000F320E320D320C321E2AC6EF0BF0C6EF15
:10162A000BF010500C5C11500D5812500E580F5000
:10163A00800A146E1350800A1458D8B027EF0BF0A2
:10164A0029EF0BF067EF0BF00CC014F00DC015F08A
:10165A000EC016F00FC017F0141E151E161E171E08
:10166A00142A000E15221622172210501424186E5E
:10167A0011501520196E125016201A6E1350172089
:10168A001B6EFF0E18240C6EFF0E19200D6EFF0E36
:10169A001A200E6EFF0E1B200F6E800E1C1A1F6C76
:1016AA001F50D8A45BEF0BF05DEF0BF06FEF0BF060
:1016BA00010E0C26000E0D220E220F226FEF0BF0E8
:1016CA006FEF0BF010500C5E11500D5A12500E5A5B
:1016DA0013500F5A0C500D100E100F10D8A478EF9B
:1016EA000BF07AEF0BF0BBEF0BF01F50D8A480EF92
:1016FA000BF082EF0BF0BBEF0BF0000E0C6E000E3E
:10170A000D6E000E0E6E000E0F6E70EF0CF070EF85
:10171A000CF0BBEF0BF0D8900C360D360E360F36A8
:10172A001FAE9AEF0BF09CEF0BF09FEF0BF00C80C3
:10173A009FEF0BF01FA0A4EF0BF0A6EF0BF0AAEFA0
:10174A000BF0D8801F36AEEF0BF0D8901F36AEEFF5
:10175A000BF01E50D8B4B4EF0BF0B6EF0BF0BBEFA2
:10176A000BF01E06BBEF0BF0BBEF0BF00EAEC0EF9B
:10177A000BF0C2EF0BF090EF0BF0C6EF0BF0C6EFD9
:10178A000BF0000E1D6E1FAECDEF0BF0CFEF0BF07E
:10179A00EBEF0BF01FC014F07F0E1416D8B4D8EF7D
:1017AA000BF0DAEF0BF0DEEF0BF0010E1D6EEBEF34
:1017BA000BF00CA0E3EF0BF0E5EF0BF0EBEF0BF007
:1017CA00010E1D6EEBEF0BF0EBEF0BF01D50D8B4D2
:1017DA00F1EF0BF0F3EF0BF024EF0CF0010E0C26F7
:1017EA00000E0D220E220F220FA0FEEF0BF000EFCB
:1017FA000CF024EF0CF00CC014F00DC015F00EC064
:10180A0016F00FC017F01734173216321532143289
:10181A0014C00CF015C00DF016C00EF017C00FF072
:10182A001E28D8B41BEF0CF01DEF0CF024EF0CF0BF
:10183A001E2A24EF0CF024EF0CF024EF0CF01E28E3
:10184A00D8B42AEF0CF02CEF0CF036EF0CF01E5047
:10185A00D8A432EF0CF034EF0CF04CEF0CF036EF6A
:10186A000CF0000E0C6E000E0D6E000E0E6E000EC9
:10187A000F6E1E50D8A444EF0CF046EF0CF04CEF5C
:10188A000CF0000E1C6E4CEF0CF04CEF0CF01EA08E
:10189A0051EF0CF053EF0CF056EF0CF00E8E59EF9F
:1018AA000CF00E9E59EF0CF0D8901E300F6E1CAE45
:1018BA0061EF0CF063EF0CF066EF0CF00F8E66EF41
:1018CA000CF00CC00CF00DC00DF00EC00EF00FC0E5
:1018DA000FF070EF0CF012001D50800B266E1D5099
:1018EA001D242C6E1CAE7CEF0CF07EEF0CF081EF09
:1018FA000CF02C8081EF0CF02C50D8B487EF0CF050
:10190A0089EF0CF09EEF0CF02C28D8A48FEF0CF086
:10191A0091EF0CF09BEF0CF0000E1A6E000E1B6E8E
:10192A00000E1C6E000E1D6E9BEF0CF01C8EA8EFB5
:10193A000CF0000E1A6E000E1B6E000E1C6E000ECE
:10194A001D6EA8EF0CF02150800B261A215021247D
:10195A00276E20AEB3EF0CF0B5EF0CF0B8EF0CF039
:10196A002780B8EF0CF02750D8B4BEEF0CF0C0EFC8
:10197A000CF0D5EF0CF02728D8A4C6EF0CF0C8EF6E
:10198A000CF0D2EF0CF0000E1E6E000E1F6E000E51
:10199A00206E000E216ED2EF0CF0208EDDEF0CF0DF
:1019AA00000E1E6E000E1F6E000E206E000E216EBF
:1019BA002750D8B4E3EF0CF0E5EF0CF0EFEF0CF0A2
:1019CA002C50D8A4EBEF0CF0EDEF0CF0FBEF0CF081
:1019DA00EFEF0CF0000E1A6E000E1B6E000E1C6E5E
:1019EA00000E1D6EA7EF0EF0A7EF0EF020501A02A0
:1019FA00F3CF31F0F4CF32F03150286E296A2A6AD7
:101A0A002B6A32502D6E2E6A2F6A306A1F501B02C3
:101A1A00F3CF31F0F4CF32F031502826000E2922CC
:101A2A002A222B2232502D26000E2E222F2230223D
:101A3A001E501C02F3CF31F0F4CF32F03150282679
:101A4A00000E29222A222B2232502D26000E2E2267
:101A5A002F2230222AC02BF029C02AF028C029F0D0
:101A6A00286A1E501B02F3CF31F0F4CF32F0315006
:101A7A00282632502922000E2A22000E2B221F501D
:101A8A001A02F3CF31F0F4CF32F031502826325017
:101A9A002922000E2A22000E2B222AC02BF029C04E
:101AAA002AF028C029F0286A1E501A02F3CF31F012
:101ABA00F4CF32F03150282632502922000E2A2241
:101ACA00000E2B2220501B02F3CF31F0F4CF32F05C
:101ADA0031502D2632502E22000E2F22000E302297
:101AEA001F501C02F3CF31F0F4CF32F031502D26C3
:101AFA0032502E22000E2F22000E302220501C02BD
:101B0A00F3CF31F0F4CF32F03150226E3250236EDF
:101B1A00246A256A24C025F023C024F022C023F0B9
:101B2A00226A22502D2623502E2224502F2225505D
:101B3A00302228C022F029C023F02AC024F02BC06A
:101B4A0025F0190EAEEF0DF0D8902532243223324B
:101B5A002232E82EA9EF0DF022502D2623502E22F4
:101B6A0024502F22255030222AC02BF029C02AF0D7
:101B7A0028C029F0286A27502CC022F0236A22267E
:101B8A00000E2322820E2224316EFF0E2320326E93
:101B9A00E6EF0DF0D8902D362E362F3630362BAE96
:101BAA00D9EF0DF0DBEF0DF0DCEF0DF02D80D890C2
:101BBA00283629362A362B363106D8A03206E6EFE1
:101BCA000DF02FAEEBEF0DF0EDEF0DF0CFEF0DF0C6
:101BDA00EFEF0DF0000E276E2BAEF6EF0DF0F8EFDB
:101BEA000DF020EF0EF0FF0E2814226EFF0E2914BE
:101BFA00236EFF0E2A14246E7F0E2B14256E22509C
:101C0A00231024102510D8B40DEF0EF00FEF0EF0AC
:101C1A0013EF0EF0010E276E20EF0EF02DA018EF35
:101C2A000EF01AEF0EF020EF0EF0010E276E20EFE5
:101C3A000EF020EF0EF02750D8B426EF0EF028EF62
:101C4A000EF050EF0EF0010E2D26000E2E222F223E
:101C5A00302230A033EF0EF035EF0EF050EF0EF0D9
:101C6A002DC022F02EC023F02FC024F030C025F062
:101C7A002534253224322332223222C02DF023C0C9
:101C8A002EF024C02FF025C030F0314A322A50EF0E
:101C9A000EF050EF0EF032BE5BEF0EF0325008E15C
:101CAA003128D8A05BEF0EF05DEF0EF067EF0EF073
:101CBA00000E2D6E000E2E6E800E2F6E7F0E306E71
:101CCA009BEF0EF032BE74EF0EF0325006E1310493
:101CDA00D8B072EF0EF074EF0EF080EF0EF0000E37
:101CEA002D6E000E2E6E000E2F6E000E306E000E40
:101CFA00266E9BEF0EF031C02CF0FF0E2D16FF0E54
:101D0A002E167F0E2F16000E30162CA08FEF0EF017
:101D1A0091EF0EF094EF0EF02F8E94EF0EF0D89014
:101D2A002C30306E9BEF0EF09BEF0EF026503012E7
:101D3A002DC01AF02EC01BF02FC01CF030C01DF0B1
:101D4A00A7EF0EF012000F50800B1C6E0F500F24DD
:101D5A00236E0EAEB3EF0EF0B5EF0EF0B8EF0EF045
:101D6A002380B8EF0EF02350D8B4BEEF0EF0C0EFC8
:101D7A000EF0D7EF0EF02328D8A4C6EF0EF0C8EF66
:101D8A000EF0D2EF0EF0000E0C6E000E0D6E000E6D
:101D9A000E6E000E0F6ED2EF0EF00E8E000E0F6E4C
:101DAA00E1EF0EF0000E0C6E000E0D6E000E0E6EC0
:101DBA00000E0F6EE1EF0EF01350800B1C1A135039
:101DCA001324246E12AEECEF0EF0EEEF0EF0F1EFEC
:101DDA000EF02480F1EF0EF02450D8B4F7EF0EF095
:101DEA00F9EF0EF010EF0FF02428D8A4FFEF0EF051
:101DFA0001EF0FF00BEF0FF0000E106E000E116ED8
:101E0A00000E126E000E136E0BEF0FF0128E000E04
:101E1A00136E1AEF0FF0000E106E000E116E000E08
:101E2A00126E000E136E1AEF0FF0105011101210EE
:101E3A001310D8A423EF0FF025EF0FF03FEF0FF0A8
:101E4A00000E0C6E000E0D6E000E0E6E000E0F6E62
:101E5A00800E0E127F0E0F121C500F120CC00CF0C7
:101E6A000DC00DF00EC00EF00FC00FF0B7EF10F05E
:101E7A00B7EF10F02350D8A445EF0FF047EF0FF05B
:101E8A005BEF0FF0000E0C6E000E0D6E000E0E6E64
:101E9A00000E0F6E0CC00CF00DC00DF00EC00EF04F
:101EAA000FC00FF0B7EF10F0B7EF10F02450146E18
:101EBA00156A141E151E144A152A2350166E176A1F
:101ECA0014501626155017227F0E16241D6E000E6A
:101EDA0017201E6E0CC018F00DC019F00EC01AF0B3
:101EEA000FC01BF0000E0C6E000E0D6E000E0E6E73
:101EFA00000E0F6E000E1F6E000E206E000E216E79
:101F0A00000E226E000E246EC7EF0FF02450D8B4D4
:101F1A0091EF0FF093EF0FF0ACEF0FF0D890183667
:101F2A0019361A361B36D8900C360D360E360F3641
:101F3A0022AEA2EF0FF0A4EF0FF0A5EF0FF00C8086
:101F4A00D8901F36203621362236ACEF0FF01050CB
:101F5A00185C1150195812501A5813501B58D8A00F
:101F6A00B9EF0FF0BBEF0FF0C6EF0FF0228C105055
:101F7A00185E1150195A12501A5A13501B5AC6EFAA
:101F8A000FF0242A190E2464CDEF0FF0CFEF0FF0D3
:101F9A008BEF0FF0D1EF0FF0185019101A101B1019
:101FAA00D8B4DAEF0FF0DCEF0FF0F8EF0FF01F8084
:101FBA00F8EF0FF0F8EF0FF0D8900C360D360E361A
:101FCA000F3622AEEBEF0FF0EDEF0FF0EEEF0FF062
:101FDA000C80D8901F362036213622361D06D8A00E
:101FEA001E06F8EF0FF00EAEFDEF0FF0FFEF0FF049
:101FFA00E1EF0FF001EF10F0000E246E22AE08EFB1
:10200A0010F00AEF10F032EF10F0FF0E1F14146EEA
:10201A00FF0E2014156EFF0E2114166E7F0E221469
:10202A00176E1450151016101710D8B41FEF10F0B1
:10203A0021EF10F025EF10F0010E246E32EF10F0B0
:10204A000CA02AEF10F02CEF10F032EF10F0010E76
:10205A00246E32EF10F032EF10F02450D8B438EF7B
:10206A0010F03AEF10F062EF10F0010E0C26000E9D
:10207A000D220E220F220FA045EF10F047EF10F0AD
:10208A0062EF10F00CC014F00DC015F00EC016F07F
:10209A000FC017F01734173216321532143214C023
:1020AA000CF015C00DF016C00EF017C00FF01D4A47
:1020BA001E2A62EF10F062EF10F01EBE6DEF10F0F4
:1020CA001E5008E11D28D8A06DEF10F06FEF10F038
:1020DA007CEF10F0000E1E6E1D68000E0C6E000ED6
:1020EA000D6E000E0E6E000E0F6E7CEF10F01EBE0F
:1020FA0089EF10F01E5006E11D04D8B087EF10F0EA
:10210A0089EF10F099EF10F0000E1E6E000E1D6E92
:10211A00000E0C6E000E0D6E000E0E6E000E0F6E8F
:10212A00000E1C6E99EF10F01DC023F023A0A0EF43
:10213A0010F0A2EF10F0A5EF10F00E8EA8EF10F03D
:10214A000E9EA8EF10F0D89023300F6E1C500F127D
:10215A000CC00CF00DC00DF00EC00EF00FC00FF049
:10216A00B7EF10F012004DC0D9FF4EC0DAFFDECF34
:10217A00F6FFDDCFF7FF0800F550250AD8A4C8EF0F
:10218A0010F0CAEF10F072EF12F04DC0D9FF4EC036
:10219A00DAFFDE2A000EDD22000E6C6E000E6B6E78
:1021AA006BC06FF06CC070F06D686E684DC0D9FF7F
:1021BA004EC0DAFFDECFF6FFDDCFF7FF0800F5509D
:1021CA00126E136A3EEC1BF012505B6E5B50D8B471
:1021DA00F1EF10F0F3EF10F02FEF11F04DC0D9FF2F
:1021EA004EC0DAFFDECF51F0DDCF52F0010E51269C
:1021FA00000E522251C0F6FF52C0F7FF0800F550F8
:10220A00126E136A3EEC1BF012505C6E5C50D8B42E
:10221A0011EF11F013EF11F02FEF11F04DC0D9FFAC
:10222A004EC0DAFFDECF51F0DDCF52F0020E51265A
:10223A00000E522251C0F6FF52C0F7FF0800F550B7
:10224A00126E136A3EEC1BF012505D6E2FEF11F006
:10225A002FEF11F0660E5B18D8A436EF11F038EFA5
:10226A0011F07AEF11F04DC0D9FF4EC0DAFFDECF80
:10227A00F6FFDDCFF7FF0800F5CF5EF04DC0D9FFBE
:10228A004EC0DAFFDE2A000EDD224FC0D9FF50C051
:10229A00DAFFDFCF51F0040EDE26DFCF52F0000E58
:1022AA00DD2251C0D9FF52C0DAFFDECF57F0DECFB0
:1022BA0058F0DECF59F0DECF5AF04BC03FF04CC099
:1022CA0040F057C041F058C042F059C043F05AC0DC
:1022DA0044F05EC045F01DEC03F03FC04BF040C037
:1022EA004CF091EF12F091EF12F05B0E0C6E000EB3
:1022FA000D6E300E0E6E060E0F6E000E116E020E71
:10230A00106E1EEC17F00C500D10D8A48FEF11F0C0
:10231A0091EF11F038EF12F04DC0D9FF4EC0DAFF3D
:10232A00DECF51F0DDCF52F0010E5126000E5222BF
:10233A0051C0F6FF52C0F7FF0800F5CF5EF0BF0E9E
:10234A00516EFF0E526E4DC0D9FF4EC0DAFFDECF7E
:10235A00F6FFDDCFF7FF0800F550536E546A51506F
:10236A0053265250542254500AE11A0E535CD8A0F4
:10237A00C1EF11F0C4EF11F0010EC5EF11F0000E1C
:10238A00556E566ADDEF11F04DC0D9FF4EC0DAFF27
:10239A00DECFF6FFDDCFF7FF0800F5500C6E0D6AB1
:1023AA0022EC1DF00CC055F00DC056F0DDEF11F017
:1023BA0055505610D8B4E4EF11F0E6EF11F000EFE3
:1023CA0012F04FC0D9FF50C0DAFFDFCF51F0040E30
:1023DA00DE26DFCF52F0000EDD2251C0D9FF52C0F7
:1023EA00DAFFDECF57F0DECF58F0DECF59F0DECF7E
:1023FA005AF018EF12F04FC0D9FF50C0DAFFDFCF02
:10240A0051F0040EDE26DFCF52F0000EDD2251C05D
:10241A00D9FF52C0DAFFDECF57F0DECF58F0DECF59
:10242A0059F0DECF5AF0020E4DC0D9FF4EC0DAFF86
:10243A00DE26000EDD224BC03FF04CC040F057C0F4
:10244A0041F058C042F059C043F05AC044F05EC04F
:10245A0045F01DEC03F03FC04BF040C04CF091EF4B
:10246A0012F091EF12F04DC0D9FF4EC0DAFFDECF65
:10247A00F6FFDDCFF7FF0800F550250AD8A448EF8C
:10248A0012F04AEF12F063EF12F04DC0D9FF4EC0BE
:10249A00DAFFDE2A000EDD22000E0D6E250E0C6E0E
:1024AA004BC00EF04CC00FF08FEC18F0000E4C6EC3
:1024BA00010E4B6E91EF12F091EF12F04DC0D9FF61
:1024CA004EC0DAFFDE2A000EDD22000E4C6E000E30
:1024DA004B6E91EF12F091EF12F04DC0D9FF4EC042
:1024EA00DAFFDECFF6FFDDCFF7FF0800F5500C6EFE
:1024FA000D6A4BC00EF04CC00FF08FEC18F04DC0B7
:10250A00D9FF4EC0DAFFDE2A000EDD22000E4C6E25
:10251A00010E4B6E91EF12F01200D4C035F0D5C007
:10252A0036F0D6C037F0D7C038F025C035F026C00F
:10253A0036F027C037F028C038F0810E296EFF0E1A
:10254A002A6E35C02BF036C02CF037C02DF038C0BB
:10255A002EF0180EB6EF12F0D8902E322D322C3201
:10256A002B32E82EB1EF12F02B502924336E000ED5
:10257A002A20346E34BECBEF12F0345009E1170E24
:10258A00335CD8A0CBEF12F0CDEF12F0D7EF12F0F8
:10259A0025C025F026C026F027C027F028C028F03D
:1025AA00AAEF13F034BEDCEF12F0DEEF12F056EFB2
:1025BA0013F033C029F0FF0E2A6EFF0E2B6E7F0E2A
:1025CA002C6E000E2D6E2966EDEF12F0F5EF12F06B
:1025DA002D342D322C322B322A32292EE8EF12F0EA
:1025EA002AC02FF02BC030F02CC031F02DC032F0B1
:1025FA002F503514296E305036142A6E3150371444
:10260A002B6E325038142C6E29502A102B102C1095
:10261A00D8A412EF13F014EF13F01EEF13F025C035
:10262A0025F026C026F027C027F028C028F0AAEFF8
:10263A0013F035C029F036C02AF037C02BF038C065
:10264A002CF0200E2EEF13F0D8902C322B322A3297
:10265A002932E82E29EF13F029502A102B102C10BA
:10266A00D8B43AEF13F03CEF13F044EF13F02F50C5
:10267A0035263050362231503722325038222F1C1C
:10268A00296E301C2A6E311C2B6E321C2C6E29507E
:10269A0035162A5036162B5037162C503816A0EFFE
:1026AA0013F035C029F036C02AF037C02BF038C0F5
:1026BA002CF0200E66EF13F0D8902C322B322A32EF
:1026CA002932E82E61EF13F029502A102B102C1012
:1026DA00D8A472EF13F074EF13F07EEF13F0000E2C
:1026EA00356E000E366E000E376E000E386EA0EF95
:1026FA0013F0D8903534296E36342A6E37342B6E5F
:10270A0038342C6E29502A102B102C10D8B490EF84
:10271A0013F092EF13F0A0EF13F0000E356E000ED7
:10272A00366E800E376EBF0E386EA0EF13F0A0EF34
:10273A0013F0A0EF13F035C025F036C026F037C0ED
:10274A0027F038C028F0AAEF13F01200146E1450C4
:10275A00D8B4B2EF13F0B4EF13F0D6EF13F00FBE04
:10276A00BBEF13F0B9EF13F0D6EF13F00CC010F073
:10277A000DC011F00EC012F00FC013F0101E111E82
:10278A00121E131E102A000E11221222132210C02A
:10279A0016F011C017F012C018F013C019F0E0EFCC
:1027AA0013F00CC016F00DC017F00EC018F00FC0D1
:1027BA0019F0E0EF13F00C500D100E100F10D8A402
:1027CA00E9EF13F0EBEF13F0F7EF13F0000E0C6ED6
:1027DA00000E0D6E000E0E6E000E0F6E98EF14F0C6
:1027EA0098EF14F0960E156E03EF14F0152AD89090
:1027FA00193218321732163203EF14F0000E16147B
:10280A00106E000E1714116E000E1814126EFE0EC2
:10281A001914136E1050111012101310D8A418EFB7
:10282A0014F01AEF14F0FBEF13F02AEF14F02AEF6A
:10283A0014F0152A010E1626000E17221822192244
:10284A00D8901932183217321632000E1614106E3A
:10285A00000E1714116E000E1814126EFF0E1914C2
:10286A00136E1050111012101310D8A43FEF14F069
:10287A0041EF14F01EEF14F04DEF14F04DEF14F089
:10288A001506D89016361736183619364DEF14F045
:10289A0018BE52EF14F054EF14F05EEF14F0020E6B
:1028AA0015605AEF14F05CEF14F045EF14F05EEF88
:1028BA0014F015B063EF14F065EF14F068EF14F03C
:1028CA00189E68EF14F0D890153215C010F0116AEE
:1028DA00126A136A10C013F0126A116A106A105051
:1028EA0016121150171212501812135019121450AE
:1028FA00D8B482EF14F084EF14F08EEF14F00FBE08
:10290A008BEF14F089EF14F08EEF14F0198E8EEF1E
:10291A0014F016C00CF017C00DF018C00EF019C054
:10292A000FF098EF14F01200000E33143B6E000EF5
:10293A0034143C6E800E35143D6E7F0E36143E6E96
:10294A003B503C103D103E10D8A4AEEF14F0B0EF4F
:10295A0014F0BAEF14F0000E336E000E346E000E4F
:10296A00356E000E366EBAEF14F0000E37143B6E59
:10297A00000E38143C6E800E39143D6E7F0E3A14E8
:10298A003E6E3B503C103D103E10D8A4CFEF14F0E1
:10299A00D1EF14F0DBEF14F0000E376E000E386E34
:1029AA00000E396E000E3A6EDBEF14F036AEE0EF31
:1029BA0014F0E2EF14F001EF15F033C03BF034C02D
:1029CA003CF035C03DF036C03EF03B1E3C1E3D1E7D
:1029DA003E1E3B2A000E3C223D223E22000E3B2494
:1029EA00336E000E3C20346E000E3D20356E800E94
:1029FA003E20366E01EF15F03AAE06EF15F008EFFD
:102A0A0015F025EF15F037C03BF038C03CF039C05F
:102A1A003DF03AC03EF03B1E3C1E3D1E3E1E3B2A88
:102A2A00000E3C223D223E22000E3B24376E000E51
:102A3A003C20386E000E3D20396E800E3E203A6EE4
:102A4A00000E331A000E341A000E351A800E361A8A
:102A5A00000E371A000E381A000E391A800E3A1A6A
:102A6A003750335C38503458395035583A50365804
:102A7A00D8B042EF15F044EF15F047EF15F0D890B3
:102A8A004CEF15F0D8804CEF15F04CEF15F0120012
:102A9A000E340F34156E1550D8A456EF15F058EFB2
:102AAA0015F064EF15F0000E0C6E000E0D6E000EA0
:102ABA000E6E000E0F6EF5EF15F0F5EF15F00CC067
:102ACA0010F00DC011F00EC012F00FC013F0200E5E
:102ADA0074EF15F0D8901332123211321032E82EF8
:102AEA006FEF15F01050146E0E8EFF0E0C16FF0EBF
:102AFA000D16FF0E0E16000E0F16960E155E15BE5B
:102B0A008BEF15F089EF15F0AFEF15F01550800A2D
:102B1A00970FD8B093EF15F095EF15F0A3EF15F0D6
:102B2A00000E0C6E000E0D6E000E0E6E000E0F6E75
:102B3A00F5EF15F0F5EF15F0A3EF15F0D8900F3279
:102B4A000E320D320C32153EA3EF15F0D9EF15F007
:102B5A00D9EF15F01F0E1564B5EF15F0B7EF15F0A4
:102B6A00CDEF15F0000E0C6E000E0D6E000E0E6EFF
:102B7A00000E0F6EF5EF15F0F5EF15F0CDEF15F02D
:102B8A00D8900C360D360E360F361506CDEF15F0E9
:102B9A001550D8A4D3EF15F0D5EF15F0C5EF15F001
:102BAA00D9EF15F0D9EF15F01450D8B4DFEF15F0BE
:102BBA00E1EF15F0EBEF15F00F1E0E1E0D1E0C6C5B
:102BCA00000E0D220E220F22EBEF15F00CC00CF0B6
:102BDA000DC00DF00EC00EF00FC00FF0F5EF15F09E
:102BEA0012007EEC1BF0000E0001D16F000ED06FB8
:102BFA00000ECC6F000ECD6F000ECE6F000ECF6FA1
:102C0A007DEF16F07EEC1BF0000E0D6E000E0C6EC2
:102C1A00DFEC1CF00CC0D0F00DC0D1F0D0C00CF02D
:102C2A00D1C00DF0000E0DBEFF0E0E6E0F6E010E1E
:102C3A00ABEC13F00CC01AF00DC01BF00EC01CF068
:102C4A000FC01DF00A0E1E6E280E1F6EA00E206EFB
:102C5A003B0E216E71EC0CF01AC0CCF01BC0CDF00B
:102C6A001CC0CEF01DC0CFF0D80E0001BA6F000E06
:102C7A00BB6F330EBC6F060EBD6FCCC0BEF0CDC0AD
:102C8A00BFF0CEC0C0F0CFC0C1F018EC1CF0D80E17
:102C9A000D6E000E0E6EFBEC1AF0000E0001D36FE3
:102CAA00000ED26FD3BF63EF16F0100ED25D270E5F
:102CBA00D359D8A063EF16F065EF16F069EF16F056
:102CCA007DEF16F07DEF16F0D24BD32BD3BF77EF03
:102CDA0016F0100ED25D270ED359D8A077EF16F052
:102CEA0079EF16F069EF16F07DEF16F07DEF16F02A
:102CFA00C7EC1DF00CC00EF00DC00FF0360E106EB2
:102D0A00060E116E9CEC17F00E500F10D8A490EF1F
:102D1A0016F092EF16F007EF16F094EF16F07EEC2D
:102D2A001BF0120065C016F066C017F067C018F0F5
:102D3A0068C019F00CC016F00DC017F00EC018F0DC
:102D4A000FC019F016C010F017C011F018C012F019
:102D5A0019C013F0180EB7EF16F0D89013321232CA
:102D6A0011321032E82EB2EF16F01050146E156AB6
:102D7A0014501510D8A4C4EF16F0C6EF16F0EAEFF7
:102D8A0016F0D8901634106E1734116E1834126E6D
:102D9A001934136E1050111012101310D8A4D8EF52
:102DAA0016F0DAEF16F0E0EF16F0000E0D6E020ED6
:102DBA000C6E1DEF17F0000E0D6E030E0C6E1DEF5C
:102DCA0017F01DEF17F01DEF17F014281510D8A4EF
:102DDA00F1EF16F0F3EF16F017EF17F016C010F038
:102DEA0017C011F018C012F019C013F0090ED890CC
:102DFA001036113612361336E82EFCEF16F0105044
:102E0A00111012101310D8B40DEF17F010EF17F0BD
:102E1A00010E11EF17F0000E0C6E0D6A1DEF17F080
:102E2A001DEF17F0000E0D6E040E0C6E1DEF17F05D
:102E3A0012000CC015F00DC016F00EC017F00FC02E
:102E4A0018F01006D8A01106102806E11128D8A4F7
:102E5A0031EF17F033EF17F046EF17F0000E0D6E53
:102E6A00000E0C6E9BEF17F09BEF17F046EF17F072
:102E7A00154A162A174A182A1006D8A0110646EF2C
:102E8A0017F015C0D9FF16C0DAFFDF50D8B450EFDB
:102E9A0017F052EF17F081EF17F017C0F6FF18C0BE
:102EAA00F7FF0800F5500009D8B45EEF17F060EF9D
:102EBA0017F081EF17F010501110D8B467EF17F020
:102ECA0069EF17F081EF17F015C0D9FF16C0DAFFC6
:102EDA00DF50126E17C0F6FF18C0F7FF0800F55052
:102EEA001218D8B47BEF17F07DEF17F03DEF17F00B
:102EFA0081EF17F081EF17F017C0F6FF18C0F7FF40
:102F0A000800F550126E136A121E131E124A132A73
:102F1A0015C0D9FF16C0DAFFDF50146E1450122400
:102F2A000C6E000E13200D6E9BEF17F01200A4EF2B
:102F3A0017F00E4A0F2A104A112AA4EF17F010C0F0
:102F4A00F6FF11C0F7FFF86A050EF76403D0080010
:102F5A00F55005D0F6CFE1FFF7CFE2FFE750126E4A
:102F6A000EC0F6FF0FC0F7FFF86A050EF76403D02C
:102F7A000800F55005D0F6CFE1FFF7CFE2FFE750A2
:102F8A001218D8A4CBEF17F0CDEF17F0E9EF17F02E
:102F9A000EC0F6FF0FC0F7FFF86A050EF76403D0FC
:102FAA000800F55005D0F6CFE1FFF7CFE2FFE75072
:102FBA000009D8A4E3EF17F0E5EF17F09EEF17F03A
:102FCA00E9EF17F0E9EF17F010C0F6FF11C0F7FFAD
:102FDA00F86A050EF76403D00800F55005D0F6CF5D
:102FEA00E1FFF7CFE2FFE750126E136A121E131EBB
:102FFA00124A132A0EC0F6FF0FC0F7FFF86A050E31
:10300A00F76403D00800F55005D0F6CFE1FFF7CFFB
:10301A00E2FFE750146E145012240E6E000E1320B5
:10302A000F6E18EF18F01200000E116E0FBE22EF8D
:10303A0018F020EF18F02AEF18F00E6C0F1ED8B017
:10304A000F2A010E116E2AEF18F00DBE31EF18F09B
:10305A002FEF18F039EF18F00C6C0D1ED8B00D2AAE
:10306A00010E111A39EF18F0000E136E000E126ECF
:10307A000E500F10D8B444EF18F046EF18F07AEF5C
:10308A0018F0010E106E50EF18F0D8900E360F3669
:10309A00102A50EF18F00FAE55EF18F057EF18F04E
:1030AA004AEF18F05BEF18F05BEF18F0D890123681
:1030BA0013360E500C5C0F500D58D8A067EF18F05D
:1030CA0069EF18F070EF18F00E500C5E0F500D5AA1
:1030DA00128070EF18F0D8900F320E32102E5BEF7C
:1030EA0018F07AEF18F07AEF18F01150D8B480EF90
:1030FA0018F082EF18F088EF18F0126C131ED8B08F
:10310A00132A88EF18F012C00CF013C00DF08EEFDE
:10311A0018F012000E500F10D8B496EF18F098EF6E
:10312A0018F0A3EF18F00E500F10D8A49FEF18F064
:10313A00A1EF18F0A8EF18F0A3EF18F00C50DCEC90
:10314A001DF0FDEF18F020EE04F00E50D9260F50B6
:10315A00DA22DE50DE10D8B4B5EF18F0B7EF18F067
:10316A00D4EF18F020EE04F00E50D9260F50DA22D0
:10317A0010EE02F00E50E1260F50E222DE50E65C1D
:10318A00E650800A146EDE50800A1458D8B0D0EF88
:10319A0018F0D2EF18F0FDEF18F0D4EF18F020EE87
:1031AA0002F00E50D9260F50DA22DECF10F0DDCF12
:1031BA0011F00EC0D9FF0FC0DAFFDECF12F0DDCF5B
:1031CA0013F010501224D96E11501320DA6E0CC06D
:1031DA00DFFF20EE02F00E50D9260F50DA22DE2A47
:1031EA00000EDD22FDEF18F0FDEF18F0FDEF18F0EC
:1031FA001200000E116E0DBE07EF19F005EF19F05F
:10320A000FEF19F00C6C0D1ED8B00D2A010E116EBD
:10321A000FEF19F00FBE16EF19F014EF19F01CEFAB
:10322A0019F00E6C0F1ED8B00F2A1CEF19F00E50B1
:10323A000F10D8B423EF19F025EF19F055EF19F054
:10324A00010E106E2FEF19F0D8900E360F36102A95
:10325A002FEF19F00FAE34EF19F036EF19F029EF0E
:10326A0019F03AEF19F03AEF19F00E500C5C0F50C2
:10327A000D58D8A043EF19F045EF19F04BEF19F0AC
:10328A000E500C5E0F500D5A4BEF19F0D8900F32BA
:10329A000E32102E3AEF19F055EF19F055EF19F0DA
:1032AA001150D8B45BEF19F05DEF19F063EF19F024
:1032BA000C6C0D1ED8B00D2A63EF19F00CC00CF07F
:1032CA000DC00DF069EF19F01200000E066E02BE75
:1032DA0073EF19F071EF19F07BEF19F0016C021E10
:1032EA00D8B0022A010E066E7BEF19F004BE82EFF7
:1032FA0019F080EF19F088EF19F0036C041ED8B0AA
:10330A00042A88EF19F003500410D8B48FEF19F08B
:10331A0091EF19F0C1EF19F0010E056E9BEF19F04C
:10332A00D89003360436052A9BEF19F004AEA0EFB5
:10333A0019F0A2EF19F095EF19F0A6EF19F0A6EF20
:10334A0019F00350015C04500258D8A0AFEF19F0ED
:10335A00B1EF19F0B7EF19F00350015E0450025AA9
:10336A00B7EF19F0D89004320332052EA6EF19F000
:10337A00C1EF19F0C1EF19F00650D8B4C7EF19F030
:10338A00C9EF19F0CFEF19F0016C021ED8B0022A6A
:10339A00CFEF19F001C001F002C002F0D5EF19F029
:1033AA0012006FA0DBEF19F0DDEF19F0E9EF19F069
:1033BA001EC015F01FC016F01CC017F01DC018F073
:1033CA0070EC1CF0E9EF19F021BEEEEF19F0F0EF06
:1033DA0019F0F6EF19F020C025F021C026F0FAEF17
:1033EA0019F0000E266E000E256E000E246E000ED9
:1033FA00236E0EEF1AF0000E0D6E200E0C6E1CC01E
:10340A000EF01DC00FF08FEC18F0234A242A0EEF9D
:10341A001AF02550235C2450800A226E2650800A16
:10342A002258D8A01BEF1AF01DEF1AF000EF1AF07D
:10343A006FB022EF1AF024EF1AF030EF1AF01EC024
:10344A0015F01FC016F01CC017F01DC018F070EC64
:10345A001CF030EF1AF01EC00CF01FC00DF047EC44
:10346A001CF025500C241C6E26500D201D6E3EEFBC
:10347A001AF01200BCEC1DF043EF1AF0D80E0E6ED3
:10348A00000E0F6EC7EC1DF00CC010F00DC011F04D
:10349A00B3EC1BF01A0E0E6E060E0F6ED80E106EDF
:1034AA00000E116E9CEC17F00E500F10D8A460EFAE
:1034BA001AF062EF1AF066EF1AF07EEC1BF043EF97
:1034CA001AF0080E0E6E060E0F6ED80E106E000E53
:1034DA00116E9CEC17F00E500F10D8A477EF1AF06B
:1034EA0079EF1AF07DEF1AF08FEC1DF043EF1AF026
:1034FA000E0E0E6E060E0F6ED80E106E000E116EA8
:10350A009CEC17F00E500F10D8A48EEF1AF090EF23
:10351A001AF043EF1AF0F6EC15F043EF1AF043EF06
:10352A001AF043EF1AF043EF1AF043EF1AF03CEFA8
:10353A0000F0000E0C14146E000E0D14156E800EA1
:10354A000E14166E7F0E0F14176E145015101610E7
:10355A001710D8A4B3EF1AF0B5EF1AF0BFEF1AF0AC
:10356A00000E0C6E000E0D6E000E0E6E000E0F6E2B
:10357A00BFEF1AF0000E1014146E000E1114156E1F
:10358A00800E1214166E7F0E1314176E1450151037
:10359A0016101710D8A4D4EF1AF0D6EF1AF0E0EFED
:1035AA001AF0000E106E000E116E000E126E000E52
:1035BA00136EE0EF1AF010500C180FE111500D18AD
:1035CA000CE112500E1809E113500F18D8B4F0EF9D
:1035DA001AF0F2EF1AF0F5EF1AF0D890FAEF1AF0A3
:1035EA00D880FAEF1AF0FAEF1AF01200000E126EF3
:1035FA00000E116E1DEF1BF011500D240F6E1250AC
:10360A000E20106E0FC0F6FF10C0F7FFF86A050E05
:10361A00F76403D00800F55005D0F6CFE1FFF7CFE5
:10362A00E2FFE7509EEC1DF0114A122A1DEF1BF033
:10363A0011500D240F6E12500E20106E0FC0F6FF9F
:10364A0010C0F7FFF86A050EF76403D00800F550BA
:10365A0005D0F6CFE1FFF7CFE2FFE7500009D8A483
:10366A0039EF1BF03BEF1BF001EF1BF03DEF1BF0B6
:10367A001200BF0E146EFF0E156E12C016F013C0A4
:10368A0017F0145016261550172217500AE11A0E71
:10369A00165CD8A053EF1BF056EF1BF0010E57EF44
:1036AA001BF0000E186E196A67EF1BF012C00CF0BF
:1036BA0013C00DF022EC1DF00CC018F00DC019F06B
:1036CA0067EF1BF018501910D8B46EEF1BF070EFAB
:1036DA001BF079EF1BF0200E1210126E1350136EAE
:1036EA007DEF1BF07DEF1BF012C012F013C013F038
:1036FA001200000E0D6E000E0C6E0DBE8EEF1BF04A
:10370A000D5009E10A0E0C5CD8A08EEF1BF090EF69
:10371A001BF094EF1BF0AEEF1BF0AEEF1BF0E20EC6
:10372A000C24D96E000E0D20DA6E000EDF6E0C4AE4
:10373A000D2A0DBEAAEF1BF00D5009E10A0E0C5C12
:10374A00D8A0AAEF1BF0ACEF1BF094EF1BF0AEEF82
:10375A001BF0000E726E000E716E120010C014F093
:10376A0011C015F00EC016F00FC017F0BFEF1BF016
:10377A00BFEF1BF01450126E1550136E144A152A1F
:10378A0012C0F6FF13C0F7FFF86A16C0D9FF17C0B8
:10379A00DAFF164A172A050EF76403D00800F55017
:1037AA0005D0F6CFE1FFF7CFE2FFE750DF6EDF503B
:1037BA00D8A4E2EF1BF0E4EF1BF0BFEF1BF0E6EF3B
:1037CA001BF0120061C0B8F062C0B9F0000E6A6E58
:1037DA00000E696E05EF1CF05FC04BF060C04CF044
:1037EA00B80E4D6E000E4E6E63C04FF064C050F0BE
:1037FA00B8EC10F04B5069264C506A2205EF1CF0C9
:10380A00B8C0F6FFB9C0F7FF0800F5500009D8A400
:10381A0011EF1CF013EF1CF0F1EF1BF069C05FF021
:10382A006AC060F01200BE0E0001C46F000EC56FC0
:10383A00BAC0C6F0BBC0C7F0000EC96F000EC86F91
:10384A00000ECB6F000ECA6FC60E5F6E000E606E62
:10385A00BCC061F0BDC062F0C40E636E000E646E3F
:10386A00E7EC1BF05FC0C2F060C0C3F00001C851B2
:10387A00BA25D96EC951BB21DA6E000EDF6E46EF4A
:10388A001CF012000CC010F00DC011F051EF1CF02A
:10389A000C4A0D2A51EF1CF00CC0D9FF0DC0DAFFFB
:1038AA00DF50D8A45BEF1CF05DEF1CF04DEF1CF06D
:1038BA005FEF1CF010C00EF011C00FF00E1E0F1EAD
:1038CA000E4A0F2A0C500E240C6E0D500F200D6E4E
:1038DA006FEF1CF01200000E1B6E000E1A6E83EFC3
:1038EA001CF019C00CF00D6A17C00EF018C00FF0CA
:1038FA008FEC18F01A4A1B2A83EF1CF01A50152471
:10390A00D96E1B501620DA6EDF50196E1950D8A4E2
:10391A0091EF1CF093EF1CF076EF1CF095EF1CF082
:10392A001200000E371A000E381A000E391A800ECD
:10393A003A1A33C00CF034C00DF035C00EF036C060
:10394A000FF037C010F038C011F039C012F03AC089
:10395A0013F0AFEC09F00CC033F00DC034F00EC018
:10396A0035F00FC036F0BAEF1CF01200E20E7124E7
:10397A00D96E000E7220DA6EAECFDFFFE20E71242E
:10398A00D96E000E7220DA6EDF50ADEC1DF0714A6E
:10399A00722A71C001F072C002F0000E046E0A0EA3
:1039AA00036E6AEC19F001C071F002C072F0DEEF2A
:1039BA001CF01200C294C296C298C29AC282C280F5
:1039CA00E7EF1CF0C2B2ECEF1CF0EEEF1CF0E7EFF1
:1039DA001CF0F0EF1CF0C350C4CF0EF00F6A0EC0FB
:1039EA000FF00E6A0E10106E0F50116E10C00CF010
:1039FA0011C00DF001EF1DF012000C500D100E1049
:103A0A000F10D8B40BEF1DF00DEF1DF017EF1DF0DE
:103A1A00000E0C1A000E0D1A000E0E1A800E0F1A46
:103A2A0017EF1DF00CC00CF00DC00DF00EC00EF01B
:103A3A000FC00FF021EF1DF01200BF0E0E6EFF0E29
:103A4A000F6E0CC010F00DC011F00E5010260F5062
:103A5A00112211500AE11A0E105CD8A037EF1DF09E
:103A6A003AEF1DF0010E3BEF1DF0000E0C6E0D6AD1
:103A7A003FEF1DF0120001EE00F0500EEE6AE8066C
:103A8A00FDE100EED4F0180EEE6AE806FDE100EE64
:103A9A0065F00E0EEE6AE806FDE173907392000E71
:103AAA00F86E00013FEF1AF006009EA45FEF1DF0CA
:103ABA0061EF1DF06BEF1DF082749E94000EB36EE1
:103ACA00000EB26E6BEF1DF06BEF1DF073921100DA
:103ADA00948C948EAC98B896AC840C0EAF6EAB8E68
:103AEA009E889E9AAC8AAB889D989F989D8A9F9A39
:103AFA00120092680E0EC16EC08EC050F80B0409F7
:103B0A00C06EC050C70B1009C06E000EC46E000E06
:103B1A00C36E12007EEC1BF0010E0D6E060E0E6EC9
:103B2A00FBEC1AF0140E0D6E060E0E6EFBEC1AF07C
:103B3A0012000C6EA1EF1DF0ACA2A6EF1DF0A8EFCB
:103B4A001DF0A1EF1DF0AAEF1DF00CC0ADFF120091
:103B5A00016EB0EF1DF0ACA2B5EF1DF0B7EF1DF08E
:103B6A00B0EF1DF0B9EF1DF001C0ADFF1200D8ECA7
:103B7A001DF06DEC1DF0CEEC1DF07EEC1DF0D4ECCA
:103B8A001DF01200E20E0C6E000E0D6ECDEF1DF050
:103B9A0012009494090EBD6E9E949F841200D38CD9
:103BAA00D38AD3981200D08EF28EF28C12001200B1
:020000040020DA
:08000000FFFFFFFFFFFFFFFF00
:020000040030CA
:0E000000FF881F00FF8381FF0FC00FE00F403D
:00000001FF
