:020000040000FA
:0200000004D02A
:020002000000FC
:0800080014D1D38CD38AD398E4
:10001000816A8A6A9380956A836A336B346B236B37
:10002000246BF288F292F18CF28EE02A816A8A6A5D
:100030009380956A836AFB0EC16EF288F086F29215
:10004000F090F18CF18AF28E60917091090E006F40
:10005000206B216B306B106B116B070E206FAC0E99
:10006000216F3E0E106F026A016A036A046A20C1A2
:10007000E8FF105DE8CF01F0D8B807D021C1E8FF54
:10008000115DE8CF03F0D8A80ED0D890D8923037C1
:100090003091D89010B1022A1033113302B0118F71
:1000A000D890D89211D0D890D89201C020F103C036
:1000B00021F130373081D89010B1042A1033113338
:1000C00004B0118FD890D892002FCDD7336B89A070
:1000D000348189A2348389A4348589A63487346B1A
:1000E00089A8338989AA338B89AC338D89AE338F44
:1000F000236B8BA023818BA223838BA423858BA6C8
:100100002387246B8BA824898BAA248B8BAC248D0A
:100110008BAE248F8B6A1F0EE8CF8BFF896A2A0E65
:10012000E8CF89FFFFD7680E276FC80E266F000043
:10013000000000000000262FFAD7272FF6D78BA843
:1001400083888BAA838A8BAC838C8BAE838ED00EF4
:10015000276FC80E266F0000000000000000262F49
:10016000FAD7272FF6D7836A680E276FC80E266F37
:100170000000000000000000262FFAD7272FF6D736
:100180008BA083808BA283828BA483848BA683869F
:10019000D00E276FC80E266F000000000000000080
:1001A000262FFAD7272FF6D7836A1200680E276FFB
:1001B000C80E266F0000000000000000262FFAD7AE
:1001C000272FF6D789A8838889AA838A89AC838C4C
:1001D00089AE838ED00E276FC80E266F00000000F8
:1001E00000000000262FFAD7272FF6D7836A680E63
:1001F000276FC80E266F0000000000000000262FA9
:10020000FAD7272FF6D789A0838089A2838289A471
:10021000838489A68386D00E276FC80E266F0000C0
:10022000000000000000262FFAD7272FF6D7836A98
:100230001200F2B278DFF2A2B9DFF292F090100071
:020000040030CA
:0100010008F6
:010002001FDE
:010003001EDE
:010005008179
:010006008178
:010008000FE8
:01000900C036
:01000A000FE6
:01000B00E014
:01000C000FE4
:01000D0040B2
:00000001FF
