:020000040000FA
:0400000007EF00F016
:0A0008007E82B7ED17F0F9EF17F054
:10060000004D6167656E74610059656C6C6F7700B1
:1006100020256420202000576869746500426C61C1
:10062000636B002025642020004C696D6500426CDE
:0D0630007565004379616E0052656400003D
:10063E002B50800B386E2B502B243A6E2AAE2AEF9D
:10064E0003F02CEF03F02FEF03F03A802FEF03F0BF
:10065E003A50D8B435EF03F037EF03F04EEF03F016
:10066E003A28D8A43DEF03F03FEF03F049EF03F033
:10067E00000E286E000E296E000E2A6E000E2B6ED6
:10068E0049EF03F02A8E000E2B6E58EF03F0000E8A
:10069E00286E000E296E000E2A6E000E2B6E58EF7D
:1006AE0003F02F50800B396E38503918D8B462EFE2
:1006BE0003F064EF03F067EF03F0388C67EF03F09D
:1006CE002F502F24396E2EAE6FEF03F071EF03F023
:1006DE0074EF03F0398074EF03F03950D8B47AEF29
:1006EE0003F07CEF03F093EF03F03928D8A482EFE8
:1006FE0003F084EF03F08EEF03F0000E2C6E000E6D
:10070E002D6E000E2E6E000E2F6E8EEF03F02E8EBF
:10071E00000E2F6E9DEF03F0000E2C6E000E2D6E50
:10072E00000E2E6E000E2F6E9DEF03F03A50395CC8
:10073E00D8B0A4EF03F0A6EF03F0D1EF03F038AC7E
:10074E00ABEF03F0ADEF03F0B1EF03F0800E381A0C
:10075E00B1EF03F03AC03BF039C03AF03BC039F08C
:10076E0028C03BF02CC028F03BC02CF029C03BF039
:10077E002DC029F03BC02DF02AC03BF02EC02AF030
:10078E003BC02EF02BC03BF02FC02BF03BC02FF008
:10079E00D1EF03F0000E3B6E3A50306E316A301ED0
:1007AE00311E304A312A3950326E336A3050322679
:1007BE003150332233BEEDEF03F0335009E11A0E00
:1007CE00325CD8A0EDEF03F0EFEF03F02CEF04F066
:1007DE00285029102A102B10D8A4F8EF03F0FBEFA5
:1007EE0003F0010EFCEF03F0000E3B6E000E286EC0
:1007FE00000E296E000E2A6E000E2B6E39C03AF0D6
:10080E0037EF04F02CEF04F03BA010EF04F012EFE2
:10081E0004F018EF04F0D8903B3001093B6E1CEF4A
:10082E0004F0D8903B321CEF04F028A021EF04F026
:10083E0023EF04F026EF04F03B8E26EF04F02B346A
:10084E002B322A32293228323A2A39503A5CD8A031
:10085E0033EF04F035EF04F00BEF04F037EF04F054
:10086E0038BC3CEF04F03EEF04F086EF04F03A5053
:10087E00D8A444EF04F046EF04F052EF04F0000E5B
:10088E00286E000E296E000E2A6E000E2B6EE0EF03
:10089E0005F0E0EF05F02C5028262D5029222E5081
:1008AE002A222F502B222BA05FEF04F061EF04F0D1
:1008BE0036EF05F03BA066EF04F068EF04F06EEF44
:1008CE0004F0D8903B3001093B6E72EF04F0D890E3
:1008DE003B3272EF04F028A077EF04F079EF04F0CA
:1008EE007CEF04F03B8E7CEF04F02B342B322A325B
:1008FE00293228323A2A36EF05F036EF05F02C5021
:10090E00285C2D5029582E502A582B50800A306EB4
:10091E002F50800A3058D8B097EF04F099EF04F0BA
:10092E00D7EF04F028C030F029C031F02AC032F0E1
:10093E002BC033F0301E311E321E331E302A000EF5
:10094E003122322233222C503024346E2D5031205D
:10095E00356E2E503220366E2F503320376EFF0EEE
:10096E003424286EFF0E3520296EFF0E36202A6E97
:10097E00FF0E37202B6E800E381A3B6C3B50D8A4DE
:10098E00CBEF04F0CDEF04F0DFEF04F0010E2826DC
:10099E00000E29222A222B22DFEF04F0DFEF04F0D3
:1009AE002C50285E2D50295A2E502A5A2F502B5A31
:1009BE00285029102A102B10D8A4E8EF04F0EAEFE3
:1009CE0004F02BEF05F03B50D8A4F0EF04F0F2EF5B
:1009DE0004F02BEF05F0000E286E000E296E000EAF
:1009EE002A6E000E2B6EE0EF05F0E0EF05F02BEF18
:1009FE0005F0D890283629362A362B363BAE0AEF2C
:100A0E0005F00CEF05F00FEF05F028800FEF05F065
:100A1E003BA014EF05F016EF05F01AEF05F0D880A5
:100A2E003B361EEF05F0D8903B361EEF05F03A50E0
:100A3E00D8B424EF05F026EF05F02BEF05F03A06BB
:100A4E002BEF05F02BEF05F02AAE30EF05F032EF6D
:100A5E0005F000EF05F036EF05F036EF05F0000E6D
:100A6E00396E3BAE3DEF05F03FEF05F05BEF05F065
:100A7E003BC030F07F0E3016D8B448EF05F04AEF89
:100A8E0005F04EEF05F0010E396E5BEF05F028A074
:100A9E0053EF05F055EF05F05BEF05F0010E396EE3
:100AAE005BEF05F05BEF05F03950D8B461EF05F060
:100ABE0063EF05F094EF05F0010E2826000E2922B3
:100ACE002A222B222BA06EEF05F070EF05F094EF8B
:100ADE0005F028C030F029C031F02AC032F02BC00A
:100AEE0033F03334333232323132303230C028F0D8
:100AFE0031C029F032C02AF033C02BF03A28D8B4D6
:100B0E008BEF05F08DEF05F094EF05F03A2A94EF98
:100B1E0005F094EF05F094EF05F03A28D8B49AEF6B
:100B2E0005F09CEF05F0A6EF05F03A50D8A4A2EF21
:100B3E0005F0A4EF05F0BCEF05F0A6EF05F0000EF2
:100B4E00286E000E296E000E2A6E000E2B6E3A5085
:100B5E00D8A4B4EF05F0B6EF05F0BCEF05F0000E2B
:100B6E00386EBCEF05F0BCEF05F03AA0C1EF05F012
:100B7E00C3EF05F0C6EF05F02A8EC9EF05F02A9EE9
:100B8E00C9EF05F0D8903A302B6E38AED1EF05F0A4
:100B9E00D3EF05F0D6EF05F02B8ED6EF05F028C07B
:100BAE0028F029C029F02AC02AF02BC02BF0E0EF44
:100BBE0005F01200D6EC17F008BEE8EF05F0EAEFEC
:100BCE0005F029EF06F008BEF8EF05F0085007E132
:100BDE00800E075CD8B0F6EF05F0F8EF05F029EFC0
:100BEE0006F00ABEFDEF05F0FFEF05F029EF06F067
:100BFE000ABE0DEF06F00A5007E1800E095CD8B070
:100C0E000BEF06F00DEF06F029EF06F00CBE12EF1B
:100C1E0006F014EF06F029EF06F00CBE22EF06F0F8
:100C2E000C5007E1800E0B5CD8B020EF06F022EFDF
:100C3E0006F029EF06F0020E00018F6F0B0E8E6F7D
:100C4E0051EF08F008BE35EF06F0085009E1800EAE
:100C5E00075CD8A035EF06F037EF06F073EF06F01D
:100C6E0008BE42EF06F00804D8B040EF06F042EF9F
:100C7E0006F073EF06F00ABE47EF06F049EF06F0F6
:100C8E0073EF06F00ABE57EF06F00A5007E1800E2A
:100C9E00095CD8B055EF06F057EF06F073EF06F08B
:100CAE000CBE5CEF06F05EEF06F073EF06F00CBEC6
:100CBE006CEF06F00C5007E1800E0B5CD8B06AEFBB
:100CCE0006F06CEF06F073EF06F0010E00018F6F69
:100CDE00ED0E8E6F51EF08F008BE78EF06F07AEF4A
:100CEE0006F0BDEF06F008BE88EF06F0085007E1EB
:100CFE00800E075CD8B086EF06F088EF06F0BDEFE9
:100D0E0006F00ABE94EF06F00A5009E1800E095C67
:100D1E00D8A094EF06F096EF06F0BDEF06F00ABEEF
:100D2E00A1EF06F00A04D8B09FEF06F0A1EF06F08F
:100D3E00BDEF06F00CBEA6EF06F0A8EF06F0BDEF75
:100D4E0006F00CBEB6EF06F00C5007E1800E0B5C01
:100D5E00D8B0B4EF06F0B6EF06F0BDEF06F0010E18
:100D6E0000018F6FB80E8E6F51EF08F008BEC2EF04
:100D7E0006F0C4EF06F007EF07F008BED2EF06F05C
:100D8E00085007E1800E075CD8B0D0EF06F0D2EF26
:100D9E0006F007EF07F00ABED7EF06F0D9EF06F020
:100DAE0007EF07F00ABEE7EF06F00A5007E1800EE4
:100DBE00095CD8B0E5EF06F0E7EF06F007EF07F0B5
:100DCE000CBEF3EF06F00C5009E1800E0B5CD8A0C0
:100DDE00F3EF06F0F5EF06F007EF07F00CBE00EFAD
:100DEE0007F00C04D8B0FEEF06F000EF07F007EFA7
:100DFE0007F0010E00018F6F880E8E6F51EF08F015
:100E0E0008BE13EF07F0085009E1800E075CD8A06A
:100E1E0013EF07F015EF07F055EF07F008BE20EFC0
:100E2E0007F00804D8B01EEF07F020EF07F055EFDB
:100E3E0007F00ABE2CEF07F00A5009E1800E095C9C
:100E4E00D8A02CEF07F02EEF07F055EF07F00ABEF3
:100E5E0039EF07F00A04D8B037EF07F039EF07F093
:100E6E0055EF07F00CBE3EEF07F040EF07F055EFE1
:100E7E0007F00CBE4EEF07F00C5007E1800E0B5C36
:100E8E00D8B04CEF07F04EEF07F055EF07F0010E1C
:100E9E0000018F6F5D0E8E6F51EF08F008BE61EF8F
:100EAE0007F0085009E1800E075CD8A061EF07F04B
:100EBE0063EF07F0A3EF07F008BE6EEF07F008042C
:100ECE00D8B06CEF07F06EEF07F0A3EF07F00ABE95
:100EDE0073EF07F075EF07F0A3EF07F00ABE83EF8D
:100EEE0007F00A5007E1800E095CD8B081EF07F0D9
:100EFE0083EF07F0A3EF07F00CBE8FEF07F00C5057
:100F0E0009E1800E0B5CD8A08FEF07F091EF07F090
:100F1E00A3EF07F00CBE9CEF07F00C04D8B09AEFCD
:100F2E0007F09CEF07F0A3EF07F0010E00018F6FA3
:100F3E00490E8E6F51EF08F008BEA8EF07F0AAEF2A
:100F4E0007F0F1EF07F008BEB8EF07F0085007E121
:100F5E00800E075CD8B0B6EF07F0B8EF07F0F1EFF0
:100F6E0007F00ABEC4EF07F00A5009E1800E095CD3
:100F7E00D8A0C4EF07F0C6EF07F0F1EF07F00ABEF6
:100F8E00D1EF07F00A04D8B0CFEF07F0D1EF07F09A
:100F9E00F1EF07F00CBEDDEF07F00C5009E1800E0B
:100FAE000B5CD8A0DDEF07F0DFEF07F0F1EF07F0F5
:100FBE000CBEEAEF07F00C04D8B0E8EF07F0EAEF4A
:100FCE0007F0F1EF07F0010E00018F6F250E8E6F07
:100FDE0051EF08F008BEFDEF07F0085009E1800E52
:100FEE00075CD8A0FDEF07F0FFEF07F051EF08F018
:100FFE0008BE0AEF08F00804D8B008EF08F00AEFB0
:10100E0008F051EF08F00ABE16EF08F00A5009E199
:10101E00800E095CD8A016EF08F018EF08F051EF1B
:10102E0008F00ABE23EF08F00A04D8B021EF08F04A
:10103E0023EF08F051EF08F00CBE2FEF08F00C5024
:10104E0009E1800E0B5CD8A02FEF08F031EF08F00D
:10105E0051EF08F00CBE3CEF08F00C04D8B03AEF9C
:10106E0008F03CEF08F051EF08F0010E00018F6F11
:10107E00080E8E6F51EF08F051EF08F051EF08F0A7
:10108E0051EF08F051EF08F051EF08F051EF08F072
:10109E0051EF08F0CE5000018E25BB6ECF508F2140
:1010AE00BC6E020E026EEE0E016E40EC16F09482D5
:1010BE00000E026EFA0E016E40EC16F012002B506E
:1010CE00800B346E2B502B243A6E2AAE71EF08F043
:1010DE0073EF08F076EF08F03A8076EF08F03A50AA
:1010EE00D8B47CEF08F07EEF08F093EF08F03A28C2
:1010FE00D8A484EF08F086EF08F090EF08F0000E09
:10110E00286E000E296E000E2A6E000E2B6E90EFCA
:10111E0008F02A8E9DEF08F0000E286E000E296E44
:10112E00000E2A6E000E2B6E9DEF08F02F50800BD6
:10113E00341A2F502F24396E2EAEA8EF08F0AAEFD6
:10114E0008F0ADEF08F03980ADEF08F03950D8B4A3
:10115E00B3EF08F0B5EF08F0CAEF08F03928D8A4BD
:10116E00BBEF08F0BDEF08F0C7EF08F0000E2C6ED5
:10117E00000E2D6E000E2E6E000E2F6EC7EF08F0B5
:10118E002E8ED2EF08F0000E2C6E000E2D6E000E7D
:10119E002E6E000E2F6E3950D8B4D8EF08F0DAEF5D
:1011AE0008F0E4EF08F03A50D8A4E0EF08F0E2EFD0
:1011BE0008F0F0EF08F0E4EF08F0000E286E000ED5
:1011CE00296E000E2A6E000E2B6E9CEF0AF09CEF1D
:1011DE000AF02E502802F3CF3FF0F4CF40F03F50EC
:1011EE00356E366A376A386A40503B6E3C6A3D6AE5
:1011FE003E6A2D502902F3CF3FF0F4CF40F03F501E
:10120E003526000E36223722382240503B26000E5D
:10121E003C223D223E222C502A02F3CF3FF0F4CF47
:10122E0040F03F503526000E3622372238224050ED
:10123E003B26000E3C223D223E2237C038F036C0FF
:10124E0037F035C036F0356A2C502902F3CF3FF017
:10125E00F4CF40F03F50352640503622000E372254
:10126E00000E38222D502802F3CF3FF0F4CF40F07D
:10127E003F50352640503622000E3722000E3822BF
:10128E0037C038F036C037F035C036F0356A2C50DE
:10129E002802F3CF3FF0F4CF40F03F5035264050B8
:1012AE003622000E3722000E38222E502902F3CF9E
:1012BE003FF0F4CF40F03F503B2640503C22000E12
:1012CE003D22000E3E222D502A02F3CF3FF0F4CFE6
:1012DE0040F03F503B2640503C22000E3D22000E77
:1012EE003E222E502A02F3CF3FF0F4CF40F03F5073
:1012FE00306E4050316E326A336A32C033F031C0D4
:10130E0032F030C031F0306A30503B2631503C2242
:10131E0032503D2233503E2235C030F036C031F0CF
:10132E0037C032F038C033F0190EA3EF09F0D89061
:10133E003332323231323032E82E9EEF09F03050F5
:10134E003B2631503C2232503D2233503E2237C094
:10135E0038F036C037F035C036F0356A39503AC0FD
:10136E0030F0316A3026000E3122820E30243F6E6C
:10137E00FF0E3120406EDBEF09F0D8903B363C3645
:10138E003D363E3638AECEEF09F0D0EF09F0D1EF54
:10139E0009F03B80D89035363636373638363F062C
:1013AE00D8A04006DBEF09F03DAEE0EF09F0E2EF2A
:1013BE0009F0C4EF09F0E4EF09F0000E396E38AE13
:1013CE00EBEF09F0EDEF09F015EF0AF0FF0E351413
:1013DE00306EFF0E3614316EFF0E3714326E7F0EE6
:1013EE003814336E3050311032103310D8B402EF3F
:1013FE000AF004EF0AF008EF0AF0010E396E15EF4D
:10140E000AF03BA00DEF0AF00FEF0AF015EF0AF00D
:10141E00010E396E15EF0AF015EF0AF03950D8B4F7
:10142E001BEF0AF01DEF0AF045EF0AF0010E3B2606
:10143E00000E3C223D223E223EA028EF0AF02AEF6B
:10144E000AF045EF0AF03BC030F03CC031F03DC031
:10145E0032F03EC033F03334333232323132303246
:10146E0030C03BF031C03CF032C03DF033C03EF0F6
:10147E003F4A402A45EF0AF045EF0AF040BE50EFD2
:10148E000AF0405008E13F28D8A050EF0AF052EF82
:10149E000AF05CEF0AF0000E3B6E000E3C6E800E02
:1014AE003D6E7F0E3E6E90EF0AF040BE69EF0AF081
:1014BE00405006E13F04D8B067EF0AF069EF0AF03A
:1014CE0075EF0AF0000E3B6E000E3C6E000E3D6E88
:1014DE00000E3E6E000E346E90EF0AF03FC03AF0F2
:1014EE00FF0E3B16FF0E3C167F0E3D16000E3E16EF
:1014FE003AA084EF0AF086EF0AF089EF0AF03D8EEB
:10150E0089EF0AF0D8903A303E6E90EF0AF090EFE5
:10151E000AF034503E123BC028F03CC029F03DC0CA
:10152E002AF03EC02BF09CEF0AF012001250800BF6
:10153E001F6E12501224266E11AEA8EF0AF0AAEFFB
:10154E000AF0ADEF0AF02680ADEF0AF02650D8B4BF
:10155E00B3EF0AF0B5EF0AF0CCEF0AF02628D8A4C4
:10156E00BBEF0AF0BDEF0AF0C7EF0AF0000E0F6EE8
:10157E00000E106E000E116E000E126EC7EF0AF006
:10158E00118E000E126ED6EF0AF0000E0F6E000EC8
:10159E00106E000E116E000E126ED6EF0AF016507F
:1015AE00800B1F1A16501624276E15AEE1EF0AF0A7
:1015BE00E3EF0AF0E6EF0AF02780E6EF0AF0275095
:1015CE00D8B4ECEF0AF0EEEF0AF005EF0BF0272897
:1015DE00D8A4F4EF0AF0F6EF0AF000EF0BF0000ECD
:1015EE00136E000E146E000E156E000E166E00EFCA
:1015FE000BF0158E000E166E0FEF0BF0000E136E25
:10160E00000E146E000E156E000E166E0FEF0BF020
:10161E001350141015101610D8A418EF0BF01AEF63
:10162E000BF034EF0BF0000E0F6E000E106E000E6E
:10163E00116E000E126E800E11127F0E12121F50BE
:10164E0012120FC00FF010C010F011C011F012C026
:10165E0012F0ACEF0CF0ACEF0CF02650D8A43AEF31
:10166E000BF03CEF0BF050EF0BF0000E0F6E000E78
:10167E00106E000E116E000E126E0FC00FF010C025
:10168E0010F011C011F012C012F0ACEF0CF0ACEF74
:10169E000CF02750176E186A171E181E174A182AB4
:1016AE002650196E1A6A1750192618501A227F0ED4
:1016BE001924206E000E1A20216E0FC01BF010C0D0
:1016CE001CF011C01DF012C01EF0000E0F6E000EA9
:1016DE00106E000E116E000E126E000E226E000EB7
:1016EE00236E000E246E000E256E000E276EBCEFCC
:1016FE000BF02750D8B486EF0BF088EF0BF0A1EF6C
:10170E000BF0D8901B361C361D361E36D8900F3671
:10171E0010361136123625AE97EF0BF099EF0BF00F
:10172E009AEF0BF00F80D8902236233624362536CA
:10173E00A1EF0BF013501B5C14501C5815501D5884
:10174E0016501E58D8A0AEEF0BF0B0EF0BF0BBEF5B
:10175E000BF0258C13501B5E14501C5A15501D5A3D
:10176E0016501E5ABBEF0BF0272A190E2764C2EF34
:10177E000BF0C4EF0BF080EF0BF0C6EF0BF01B502D
:10178E001C101D101E10D8B4CFEF0BF0D1EF0BF0C4
:10179E00EDEF0BF02280EDEF0BF0EDEF0BF0D890AC
:1017AE000F3610361136123625AEE0EF0BF0E2EFA3
:1017BE000BF0E3EF0BF00F80D89022362336243651
:1017CE0025362006D8A02106EDEF0BF011AEF2EF74
:1017DE000BF0F4EF0BF0D6EF0BF0F6EF0BF0000E74
:1017EE00276E25AEFDEF0BF0FFEF0BF027EF0CF0A1
:1017FE00FF0E2214176EFF0E2314186EFF0E241404
:10180E00196E7F0E25141A6E1750181019101A1013
:10181E00D8B414EF0CF016EF0CF01AEF0CF0010E1A
:10182E00276E27EF0CF00FA01FEF0CF021EF0CF03E
:10183E0027EF0CF0010E276E27EF0CF027EF0CF0C0
:10184E002750D8B42DEF0CF02FEF0CF057EF0CF013
:10185E00010E0F26000E10221122122212A03AEFB4
:10186E000CF03CEF0CF057EF0CF00FC017F010C05F
:10187E0018F011C019F012C01AF01A341A321932B7
:10188E001832173217C00FF018C010F019C011F02F
:10189E001AC012F0204A212A57EF0CF057EF0CF025
:1018AE0021BE62EF0CF0215008E12028D8A062EF93
:1018BE000CF064EF0CF071EF0CF0000E216E20684E
:1018CE00000E0F6E000E106E000E116E000E126ED8
:1018DE0071EF0CF021BE7EEF0CF0215006E12004DA
:1018EE00D8B07CEF0CF07EEF0CF08EEF0CF0000E0B
:1018FE00216E000E206E000E0F6E000E106E000E8A
:10190E00116E000E126E000E1F6E8EEF0CF020C0C8
:10191E0026F026A095EF0CF097EF0CF09AEF0CF056
:10192E00118E9DEF0CF0119E9DEF0CF0D89026308D
:10193E00126E1F5012120FC00FF010C010F011C017
:10194E0011F012C012F0ACEF0CF012001EC036F007
:10195E001FC037F020C038F021C039F022C03AF055
:10196E0023C03BF024C03CF025C03DF03DBEC2EF8D
:10197E000CF0C5EF0CF0010EC6EF0CF0000E346E3D
:10198E00356A34503510D8B4CFEF0CF0D1EF0CF0DF
:10199E00E3EF0CF03D1E3C1E3B1E3A1E391E381E58
:1019AE00371E366C000E3722382239223A223B225D
:1019BE003C223D22E3EF0CF0000185BFE9EF0CF075
:1019CE00EBEF0CF0EEEF0CF08693EEEF0CF085BF24
:1019DE00FBEF0CF0855106E18405D8B0F9EF0CF061
:1019EE00FBEF0CF001EF0DF0000E316E010E306EBC
:1019FE0005EF0DF084C030F085C031F082C032F0BA
:101A0E0083C033F034503510D8A410EF0DF012EF20
:101A1E000DF01BEF0DF086A517EF0DF019EF0DF081
:101A2E0020EF0DF01BEF0DF03206D8A0330620EF9D
:101A3E000DF0000E3F6E1F0E3E6E900E3E24D96EC0
:101A4E00000E3F20DA6E000EDF6EACEF0DF03E069C
:101A5E00D8A03F06900E3E24D96E000E3F20DA6EBF
:101A6E0036C001F037C002F038C003F039C004F0C0
:101A7E003AC005F03BC006F03CC007F03DC008F090
:101A8E000A0E096E000E0A6E000E0B6E000E0C6E24
:101A9E00000E0D6E000E0E6E000E0F6E000E106E0E
:101AAE00E7EC12F001C026F002C027F003C028F0C8
:101ABE0004C029F005C02AF006C02BF007C02CF098
:101ACE0008C02DF026C013F028C014F095EC17F0C6
:101ADE001350300FDF6E3006D8A031063206D8A074
:101AEE00330636C001F037C002F038C003F039C0FB
:101AFE0004F03AC005F03BC006F03CC007F03DC014
:101B0E0008F00A0E096E000E0A6E000E0B6E000E25
:101B1E000C6E000E0D6E000E0E6E000E0F6E000E91
:101B2E00106E0FEC12F001C036F002C037F003C099
:101B3E0038F004C039F005C03AF006C03BF007C0DB
:101B4E003CF008C03DF0ACEF0DF03FBEB7EF0DF02E
:101B5E003F5008E13E04D8A0B7EF0DF0B9EF0DF0FD
:101B6E00F0EF0DF036503710381039103A103B1098
:101B7E003C103D10D8A4C6EF0DF0C8EF0DF02EEFBF
:101B8E000DF031BED5EF0DF0315006E13004D8B076
:101B9E00D3EF0DF0D5EF0DF02EEF0DF033BEE0EFDD
:101BAE000DF0335008E13204D8A0E0EF0DF0E2EF73
:101BBE000DF0F0EF0DF0000186B3E8EF0DF0EAEF57
:101BCE000DF02EEF0DF0F0EF0DF0F0EF0DF0F0EF59
:101BDE000DF034503510D8A4F7EF0DF0F9EF0DF0ED
:101BEE0003EF0EF0000186A5FFEF0DF001EF0EF0F2
:101BFE0025EF0EF003EF0EF03E06D8A03F06345050
:101C0E003510D8A40DEF0EF00FEF0EF015EF0EF00D
:101C1E00000E2F6E2B0E2E6E1BEF0EF0000E2F6E83
:101C2E002D0E2E6E1BEF0EF0900E3E24D96E000E72
:101C3E003F20DA6E2EC0DFFF25EF0EF01CC011F034
:101C4E001DC012F0900E3E24136E000E3F20146E37
:101C5E0032C015F033C016F03EEC15F011C01CF07A
:101C6E0012C01DF03BEF0EF01200720ED36E06EC9A
:101C7E0018F00EEC18F095909592800E4B6E250E86
:101C8E004C6E000E4D6E000E4E6EF6EC15F050EFD3
:101C9E000EF0000E8C6EA9EC15F00DC072F00EC099
:101CAE0073F00FC074F010C075F0700E4B6E170EFF
:101CBE004C6E000E4D6E000E4E6EA00E4F6E860ECA
:101CCE00506E010E516E000E526E72C053F073C004
:101CDE0054F074C055F075C056F056EC14F04BC06D
:101CEE00B0F04CC0B1F00001B105D8A081EF0EF0FC
:101CFE0083EF0EF088EF0EF0000EB16FB06988EF33
:101D0E000EF0680E586E000E596E100E5A6E060EBC
:101D1E005B6EB0C05CF0B1C05DF019EC17F0680EF0
:101D2E00026E000E036EE6EC16F0030E8C6EA9EC3E
:101D3E0015F00DC076F00EC077F00FC078F010C021
:101D4E0079F0880E4B6E130E4C6E000E4D6E000E1B
:101D5E004E6E600E4F6EEA0E506E000E516E000EFD
:101D6E00526E76C053F077C054F078C055F079C0FB
:101D7E0056F056EC14F04BC08AF04CC08BF00001BC
:101D8E008B05D8A0CDEF0EF0CFEF0EF0D4EF0EF006
:101D9E00000E8B6F8A69D4EF0EF0680E586E000E2F
:101DAE00596E230E5A6E060E5B6E8AC05CF08BC0A7
:101DBE005DF019EC17F0680E026E000E036EE6EC85
:101DCE0016F0010E8C6EA9EC15F00DC07AF00EC057
:101DDE007BF00FC07CF010C07DF0700E4B6E170EB6
:101DEE004C6E000E4D6E000E4E6E180E4F6E730E34
:101DFE00506E010E516E000E526E7AC053F07BC0C3
:101E0E0054F07CC055F07DC056F056EC14F04BC02B
:101E1E0088F04CC089F000018905D8A019EF0FF0A9
:101E2E001BEF0FF020EF0FF0000E896F886920EF87
:101E3E000FF0680E586E000E596E110E5A6E060E89
:101E4E005B6E88C05CF089C05DF019EC17F0680E0F
:101E5E00026E000E036EE6EC16F00A0EEAEC17F0B8
:101E6E000D0EEAEC17F0B0C007F0B1C008F08AC052
:101E7E0009F08BC00AF088C00BF089C00CF0E1ECC1
:101E8E0005F0680E016E000E026E000E046E000E5E
:101E9E00036E000E066E0A0E056E30EC11F050EF5A
:101EAE000EF050EF0EF007EF00F0096E0950D8B4A7
:101EBE0063EF0FF065EF0FF087EF0FF004BE6CEFDE
:101ECE000FF06AEF0FF087EF0FF001C005F002C0C0
:101EDE0006F003C007F004C008F0051E061E071E1C
:101EEE00081E052A000E06220722082205C00BF046
:101EFE0006C00CF007C00DF008C00EF091EF0FF009
:101F0E0001C00BF002C00CF003C00DF004C00EF0C7
:101F1E0091EF0FF00150021003100410D8A49AEFA5
:101F2E000FF09CEF0FF0A8EF0FF0000E016E000EF9
:101F3E00026E000E036E000E046E49EF10F049EFB4
:101F4E0010F0960E0A6EB4EF0FF00A2AD8900E32E9
:101F5E000D320C320B32B4EF0FF0000E0B14056E77
:101F6E00000E0C14066E000E0D14076EFE0E0E14EF
:101F7E00086E0550061007100810D8A4C9EF0FF010
:101F8E00CBEF0FF0ACEF0FF0DBEF0FF0DBEF0FF05E
:101F9E000A2A010E0B26000E0C220D220E22D890BC
:101FAE000E320D320C320B32000E0B14056E000E7B
:101FBE000C14066E000E0D14076EFF0E0E14086E36
:101FCE000550061007100810D8A4F0EF0FF0F2EF2E
:101FDE000FF0CFEF0FF0FEEF0FF0FEEF0FF00A064F
:101FEE00D8900B360C360D360E36FEEF0FF00DBEBA
:101FFE0003EF10F005EF10F00FEF10F0020E0A6075
:10200E000BEF10F00DEF10F0F6EF0FF00FEF10F0EA
:10201E000AB014EF10F016EF10F019EF10F00D9E3D
:10202E0019EF10F0D8900A320AC005F0066A076A56
:10203E00086A05C008F0076A066A056A05500B12A1
:10204E0006500C1207500D1208500E120950D8B43B
:10205E0033EF10F035EF10F03FEF10F004BE3CEF11
:10206E0010F03AEF10F03FEF10F00E8E3FEF10F041
:10207E000BC001F00CC002F00DC003F00EC004F056
:10208E0049EF10F0120042C0D9FF43C0DAFFDECF95
:10209E00F6FFDDCFF7FF0800F550250AD8A45AEF5A
:1020AE0010F05CEF10F010EF11F042C0D9FF43C0FA
:1020BE00DAFFDE2A000EDD22000E0001836F000E15
:1020CE00826F82C086F083C087F08469856942C0C2
:1020DE00D9FF43C0DAFFDECFF6FFDDCFF7FF0800F2
:1020EE00F550640AD8B47EEF10F080EF10F094EF44
:1020FE0010F042C0D9FF43C0DAFFDECFF6FFDDCFCE
:10210E00F7FF0800F550690AD8A490EF10F092EF8F
:10211E0010F0D6EF10F094EF10F042C0D9FF43C08C
:10212E00DAFFDE2A000EDD2244C0D9FF45C0DAFFF9
:10213E00DFCF46F0020EDE26DFCF47F0000EDD22A7
:10214E0046C0D9FF47C0DAFFDECF48F0DDCF49F0F9
:10215E00000E49BEFF0E4A6E4B6E4C6E4D6E4E6EAD
:10216E004F6E40C01CF041C01DF048C01EF049C06B
:10217E001FF04AC020F04BC021F04CC022F04DC0E1
:10218E0023F04EC024F04FC025F0ADEC0CF01CC077
:10219E0040F01DC041F02FEF11F02FEF11F042C0B3
:1021AE00D9FF43C0DAFFDECFF6FFDDCFF7FF080021
:1021BE00F550250AD8A4E6EF10F0E8EF10F001EF85
:1021CE0011F042C0D9FF43C0DAFFDE2A000EDD2235
:1021DE00000E026E250E016E40C003F041C004F0E9
:1021EE00CFEC14F0000E416E010E406E2FEF11F089
:1021FE002FEF11F042C0D9FF43C0DAFFDE2A000EE6
:10220E00DD22000E416E000E406E2FEF11F02FEF0B
:10221E0011F042C0D9FF43C0DAFFDECFF6FFDDCFAB
:10222E00F7FF0800F550016E026A40C003F041C08E
:10223E0004F0CFEC14F042C0D9FF43C0DAFFDE2A1F
:10224E00000EDD22000E416E010E406E2FEF11F0DA
:10225E00120001C00DF002C00EF005500610D8A4F9
:10226E003BEF11F03DEF11F041EF11F00EEF12F0D8
:10227E000EEF12F00DC0D9FF0EC0DAFF03C0DFFF64
:10228E00FF0E076EFF0E086E05C009F006C00AF0BD
:10229E000750092608500A2209500D24D96E0A50FB
:1022AE000E20DA6E03C0DFFF065007E1030E055C59
:1022BE00D8B064EF11F066EF11F06AEF11F00EEF87
:1022CE0012F00EEF12F020EE01F00D50D9260E5046
:1022DE00DA2203C0DFFF20EE02F00D50D9260E5099
:1022EE00DA2203C0DFFFFE0E076EFF0E086E05C07A
:1022FE0009F006C00AF00750092608500A220950B4
:10230E000D24D96E0A500E20DA6E03C0DFFFFD0ECB
:10231E00076EFF0E086E05C009F006C00AF00750E2
:10232E00092608500A2209500D24D96E0A500E2093
:10233E00DA6E03C0DFFF065007E1070E055CD8B06A
:10234E00ABEF11F0ADEF11F0B1EF11F00EEF12F0A7
:10235E000EEF12F020EE03F00D50D9260E50DA22B9
:10236E0003C0DFFFFC0E076EFF0E086E05C009F0FE
:10237E0006C00AF00750092608500A2209500D24FB
:10238E00D96E0A500E20DA6E03C0DFFF065007E149
:10239E00090E055CD8B0D6EF11F0D8EF11F0DCEFD6
:1023AE0011F00EEF12F00EEF12F00DC007F00EC08E
:1023BE0008F0071E081E074A082A030E07140B6EA4
:1023CE000C6A0B500D260C500E220B50055E0C5055
:1023DE00065AFC0E0516FF0E061603EF12F00DC080
:1023EE00D9FF0EC0DAFF03C0DFFF0506D8A0060630
:1023FE000D4A0E2A03EF12F005500610D8A40AEF6C
:10240E0012F00CEF12F0F6EF11F00EEF12F01200C8
:10241E00000E126E10BE18EF12F016EF12F02CEF27
:10242E0012F0101E0F1E0E1E0D1E0C1E0B1E0A1E6F
:10243E00096C000E0A220B220C220D220E220F22F4
:10244E001022010E126E2CEF12F008BE33EF12F0B6
:10245E0031EF12F047EF12F0081E071E061E051E82
:10246E00041E031E021E016C000E02220322042211
:10247E000522062207220822010E121A47EF12F039
:10248E0020EE13F0070EDE6AE806FDE209500A1090
:10249E000B100C100D100E100F101010D8B45AEFA8
:1024AE0012F05CEF12F0BAEF12F0010E116E6CEF3B
:1024BE0012F0D89009360A360B360C360D360E361B
:1024CE000F361036112A6CEF12F010AE71EF12F0BB
:1024DE0073EF12F060EF12F077EF12F077EF12F069
:1024EE00D890133614361536163617361836193662
:1024FE001A360950015C0A5002580B5003580C5002
:10250E0004580D5005580E5006580F5007581050CD
:10251E000858D8A095EF12F097EF12F0AAEF12F02C
:10252E000950015E0A50025A0B50035A0C50045ABD
:10253E000D50055A0E50065A0F50075A1050085A91
:10254E001380AAEF12F0D89010320F320E320D32E5
:10255E000C320B320A320932112E77EF12F0BAEF2B
:10256E0012F0BAEF12F01250D8B4C0EF12F0C2EF60
:10257E0012F0D4EF12F01A1E191E181E171E161E78
:10258E00151E141E136C000E14221522162217226D
:10259E00182219221A22D4EF12F013C001F014C01F
:1025AE0002F015C003F016C004F017C005F018C0F5
:1025BE0006F019C007F01AC008F0E6EF12F012008C
:1025CE00000E126E08BEF0EF12F0EEEF12F004EFF6
:1025DE0013F0081E071E061E051E041E031E021EF5
:1025EE00016C000E0222032204220522062207227B
:1025FE000822010E126E04EF13F010BE0BEF13F053
:10260E0009EF13F01DEF13F0101E0F1E0E1E0D1E00
:10261E000C1E0B1E0A1E096C000E0A220B220C2227
:10262E000D220E220F2210221DEF13F009500A1058
:10263E000B100C100D100E100F101010D8B42AEF36
:10264E0013F02CEF13F080EF13F0010E116E3CEF30
:10265E0013F0D89009360A360B360C360D360E3678
:10266E000F361036112A3CEF13F010AE41EF13F077
:10267E0043EF13F030EF13F047EF13F047EF13F083
:10268E000950015C0A5002580B5003580C50045864
:10269E000D5005580E5006580F5007581050085838
:1026AE00D8A05CEF13F05EEF13F070EF13F009504B
:1026BE00015E0A50025A0B50035A0C50045A0D5028
:1026CE00055A0E50065A0F50075A1050085A70EFFE
:1026DE0013F0D89010320F320E320D320C320B3204
:1026EE000A320932112E47EF13F080EF13F080EF0C
:1026FE0013F01250D8B486EF13F088EF13F09AEF60
:10270E0013F0081E071E061E051E041E031E021EC3
:10271E00016C000E02220322042205220622072249
:10272E0008229AEF13F001C001F002C002F003C0BC
:10273E0003F004C004F005C005F006C006F007C0A3
:10274E0007F008C008F0ACEF13F012004334443425
:10275E004A6E4A50D8A4B6EF13F0B8EF13F0C4EF98
:10276E0013F0000E416E000E426E000E436E000E10
:10277E00446E55EF14F055EF14F041C045F042C0D1
:10278E0046F043C047F044C048F0200ED4EF13F09B
:10279E00D8904832473246324532E82ECFEF13F00A
:1027AE004550496E438EFF0E4116FF0E4216FF0E28
:1027BE004316000E4416960E4A5E4ABEEBEF13F019
:1027CE00E9EF13F00FEF14F04A50800A970FD8B0CC
:1027DE00F3EF13F0F5EF13F003EF14F0000E416E6C
:1027EE00000E426E000E436E000E446E55EF14F056
:1027FE0055EF14F003EF14F0D890443243324232C6
:10280E0041324A3E03EF14F039EF14F039EF14F071
:10281E001F0E4A6415EF14F017EF14F02DEF14F09D
:10282E00000E416E000E426E000E436E000E446EA0
:10283E0055EF14F055EF14F02DEF14F0D8904136FB
:10284E004236433644364A062DEF14F04A50D8A489
:10285E0033EF14F035EF14F025EF14F039EF14F0D8
:10286E0039EF14F04950D8B43FEF14F041EF14F0A3
:10287E004BEF14F0441E431E421E416C000E4222CA
:10288E00432244224BEF14F041C041F042C042F0CB
:10289E0043C043F044C044F055EF14F01200000E54
:1028AE002C6E000E2D6E7F0E2E6E430E2F6E4BC0B5
:1028BE0057F04CC058F04DC059F04EC05AF0571E4C
:1028CE00581E591E5A1E572A000E582259225A2295
:1028DE004F505724016E50505820026E51505920BF
:1028EE00036E52505A20046E000E5CEC0FF001C0C5
:1028FE0013F002C014F003C015F004C016F04BC064
:10290E005BF04CC05CF04DC05DF04EC05EF05B1EE7
:10291E005C1E5D1E5E1E5B2A000E5C225D225E2228
:10292E0053505B24016E54505C20026E55505D2056
:10293E00036E56505E20046E000E5CEC0FF001C06C
:10294E000FF002C010F003C011F004C012F09DECA5
:10295E000AF00FC028F010C029F011C02AF012C0E2
:10296E002BF066EC08F028C041F029C042F02AC0D6
:10297E0043F02BC044F0ADEC13F041C05FF042C009
:10298E0060F05FC04BF060C04CF0CEEF14F0120060
:10299E0003500410D8B4D6EF14F0D8EF14F0E3EFD0
:1029AE0014F003500410D8A4DFEF14F0E1EF14F08C
:1029BE00E8EF14F0E3EF14F0015014EC18F03DEFD3
:1029CE0015F020EE04F00350D9260450DA22DE5022
:1029DE00DE10D8B4F5EF14F0F7EF14F014EF15F095
:1029EE0020EE04F00350D9260450DA2210EE02F045
:1029FE000350E1260450E222DE50E65CE650800AE7
:102A0E00096EDE50800A0958D8B010EF15F012EF9B
:102A1E0015F03DEF15F014EF15F020EE02F0035017
:102A2E00D9260450DA22DECF05F0DDCF06F003C042
:102A3E00D9FF04C0DAFFDECF07F0DDCF08F0055076
:102A4E000724D96E06500820DA6E01C0DFFF20EE93
:102A5E0002F00350D9260450DA22DE2A000EDD22BF
:102A6E003DEF15F03DEF15F03DEF15F012000001B2
:102A7E0086A144EF15F046EF15F052EF15F013C096
:102A8E000AF014C00BF011C00CF012C00DF06FEC78
:102A9E0017F052EF15F016BE57EF15F059EF15F06F
:102AAE005FEF15F015C01AF016C01BF063EF15F0AE
:102ABE00000E1B6E000E1A6E000E196E000E186EB2
:102ACE0077EF15F0000E026E200E016E11C003F0AE
:102ADE0012C004F0CFEC14F0184A192A77EF15F053
:102AEE001A50185C1950800A176E1B50800A17581E
:102AFE00D8A084EF15F086EF15F069EF15F0000100
:102B0E0086B18CEF15F08EEF15F09AEF15F013C01D
:102B1E000AF014C00BF011C00CF012C00DF06FECE7
:102B2E0017F09AEF15F013C001F014C002F046EC46
:102B3E0017F01A500124116E1B500220126EA8EFCE
:102B4E0015F01200000ED76E000ED66ED58E000E4A
:102B5E00026E640E016E40EC16F0D59ED6CF15F0C7
:102B6E00D7CF16F0176A186A00018C51116E8D516D
:102B7E00126E136A146A12C014F011C013F0126AA6
:102B8E00116A15501124016E16501220026E175044
:102B9E001320036E18501420046E0A0E056E000EDC
:102BAE00066E000E076E000E086E7AEC16F001C06F
:102BBE0015F002C016F003C017F004C018F0000E96
:102BCE0000018D6F000E8C6F15C00DF016C00EF04B
:102BDE0017C00FF018C010F0F5EF15F01200949C0E
:102BEE00948E4BC001F04CC002F04DC003F04EC0AD
:102BFE0004F0010E5CEC0FF001C013F002C014F0F3
:102C0E0003C015F004C016F0000E0F6E240E106EE9
:102C1E00F40E116E470E126E9DEC0AF00FC028F0E6
:102C2E0010C029F011C02AF012C02BF0000E2C6E2D
:102C3E00000E2D6E800E2E6EBF0E2F6E1FEC03F04B
:102C4E0028C04FF029C050F02AC051F02BC052F0CE
:102C5E004FC041F050C042F051C043F052C044F05A
:102C6E00ADEC13F04150AF6E200EAC6E900EAB6E0D
:102C7E001200000E046E000E036E6CEF16F0000EC6
:102C8E00066E000E056E065009E1A50E055CD8A075
:102C9E0053EF16F055EF16F059EF16F068EF16F0E9
:102CAE0068EF16F0054A062A065009E1A50E055CE6
:102CBE00D8A064EF16F066EF16F059EF16F068EF35
:102CCE0016F0034A042A6CEF16F00150035C025012
:102CDE000458D8A075EF16F077EF16F046EF16F001
:102CEE0079EF16F01200000E096E000E0A6E000E3D
:102CFE000B6E000E0C6E84EF16F001A089EF16F02D
:102D0E008BEF16F095EF16F00550092606500A22A5
:102D1E0007500B2208500C2295EF16F0D89005366E
:102D2E00063607360836D8900432033202320132A4
:102D3E000150021003100410D8A4A8EF16F0AAEF49
:102D4E0016F084EF16F009C001F00AC002F00BC0B5
:102D5E0003F00CC004F0120052C056F053C057F0EE
:102D6E00000E0001816F000E806FD3EF16F050C081
:102D7E0040F051C041F0560E426E000E436E54C0EC
:102D8E0044F055C045F04AEC10F040500001802749
:102D9E0041508123D3EF16F056C0F6FF57C0F7FF10
:102DAE000800F5500009D8A4DFEF16F0E1EF16F099
:102DBE00BEEF16F080C050F081C051F01200FEEF51
:102DCE0016F002C0F6FF03C0F7FFF86A050EF764AF
:102DDE0003D00800F55005D0F6CFE1FFF7CFE2FFA4
:102DEE00E750EAEC17F0024A032AFEEF16F002C093
:102DFE00F6FF03C0F7FFF86A050EF76403D008006C
:102E0E00F55005D0F6CFE1FFF7CFE2FFE75000090E
:102E1E00D8A414EF17F016EF17F0E8EF16F018EF2E
:102E2E0017F012005C0E606E000E616E58C062F0FC
:102E3E0059C063F0000E656E000E646E000E676E74
:102E4E00000E666E620E506E000E516E5AC052F03B
:102E5E005BC053F0600E546E000E556EB3EC16F060
:102E6E0050C05EF051C05FF064505824D96E65506A
:102E7E005920DA6E000EDF6E45EF17F0120001C01A
:102E8E0005F002C006F050EF17F0014A022A50EF8B
:102E9E0017F001C0D9FF02C0DAFFDF50D8A45AEFF5
:102EAE0017F05CEF17F04CEF17F05EEF17F005C060
:102EBE0003F006C004F0031E041E034A042A015048
:102ECE000324016E02500420026E6EEF17F0120002
:102EDE00000E106E000E0F6E82EF17F00EC001F096
:102EEE00026A0CC003F00DC004F0CFEC14F00F4AD0
:102EFE00102A82EF17F00F500A24D96E10500B20B3
:102F0E00DA6EDF500E6E0E50D8A490EF17F092EFDF
:102F1E0017F075EF17F094EF17F0120014BEA2EF32
:102F2E0017F0145006E11304D8B0A0EF17F0A2EF7B
:102F3E0017F0B0EF17F013C015F014C016F0151EF1
:102F4E00161E154A162A15C013F016C014F0B6EF49
:102F5E0017F013C013F014C014F0B6EF17F01200F0
:102F6E000600A1A0BDEF17F0BFEF17F0C7EF17F0E7
:102F7E00A19000018E51BB268F51BC22C7EF17F0D6
:102F8E00F2A4CCEF17F0CEEF17F0D4EF17F000014C
:102F9E008C4B8D2BF294D4EF17F07E921100000E15
:102FAE0000018F6F000E8E6F000EBC6E000EBB6E9A
:102FBE009492810EB16E810ECD6E020EBA6EA2800B
:102FCE00A190A0801200016EEDEF17F09EA8F2EF17
:102FDE0017F0F4EF17F0EDEF17F0F6EF17F001C062
:102FEE00ADFF120000EE80F0300EEE6AE806FDE155
:102FFE007E907E92000EF86E00013CEF0EF09288ED
:10300E00280ED56EF28AF294F28EF28C1200D38CC8
:0C301E00D38AD388000ED06E120012007E
:020000040020DA
:08000000FFFFFFFFFFFFFFFF00
:020000040030CA
:0E000000FF081F1EFF8381FF0FC00FE00F409F
:00000001FF
