:020000040000FA
:10000000100EE8CF92FF000EE8CF95FF110EE8CF5B
:100010008CFFE86A806A80B8400E156E200E146E60
:100020000000000000000000142E10EF00F0152E5C
:100030000EEF00F0100E156EC80E146E00000000DA
:100040000000000080A809D0142E1EEF00F0152E2D
:100050001CEF00F08C460BEF00F080B8400E156EE0
:10006000200E146E0000000000000000142E32EF7D
:1000700000F0152E30EF00F0100E156EC80E146E45
:10008000000000000000000080A8C5D7142E40EF3B
:0E00900000F0152E3EEF00F08C422DEF00F038
:02009E00000060
:020000040030CA
:0100010008F6
:010003001EDE
:010006008178
:00000001FF
