:020000040000FA
:0400000007EF00F016
:10000800198209ED00F061EF00F00600D9CF17F072
:10001800DACF18F09EAC13EF00F015EF00F039EFCF
:1000280000F0D8901534D96E1634DA6E010ED92640
:10003800000EDA22C3CFDEFFC4CFDDFF154A162A31
:100048000A0E15181610D8A42CEF00F02EEF00F0A9
:1000580034EF00F0000E166E000E156E34EF00F04F
:100068009E9CC280A19045EF00F0A1A03EEF00F059
:1000780040EF00F045EF00F0A19045EF00F045EFAC
:1000880000F018C0DAFF17C0D9FF19921100C29A00
:10009800C288C286C284C2809684C282C19AC1982C
:1000A800C084C082C080C09AC098C086C08E9D8C13
:1000B8009F8CD08EF28EF28C120000EE01F0160E9C
:1000C800EE6AE806FDE119901992000177EF00F059
:1000D800BA86BA94BA82BA80A080A2807A0EBC6E20
:1000E800120EBB6E12004BEC00F06CEC00F081ECD1
:1000F80000F07DEF00F007EF00F0B18EB18CB18613
:04010800B1801200B0
:020000040020DA
:08000000FFFFFFFFFFFFFFFF00
:020000040030CA
:0E000000FF081F1EFF8381FF0FC00FE00F409F
:00000001FF
