:020000040000FA
:0400000007EF00F016
:100008000B82CCED03F0DFEF03F0B7EC03F004BE96
:1000180010EF00F012EF00F050EF00F004BE20EFF8
:1000280000F0045007E1800E035CD8B01EEF00F02A
:1000380020EF00F050EF00F006BE25EF00F027EFAC
:1000480000F050EF00F006BE35EF00F0065007E173
:10005800800E055CD8B033EF00F035EF00F050EFBC
:1000680000F008BE3AEF00F03CEF00F050EF00F06F
:1000780008BE4AEF00F0085007E1800E075CD8B0D0
:1000880048EF00F04AEF00F050EF00F0020E0A6E61
:100098000B0E096E71EF02F004BE5CEF00F0045025
:1000A80009E1800E035CD8A05CEF00F05EEF00F081
:1000B80099EF00F004BE69EF00F00404D8B067EFD0
:1000C80000F069EF00F099EF00F006BE6EEF00F067
:1000D80070EF00F099EF00F006BE7EEF00F00650DA
:1000E80007E1800E055CD8B07CEF00F07EEF00F0F1
:1000F80099EF00F008BE83EF00F085EF00F099EF6C
:1001080000F008BE93EF00F0085007E1800E075C8E
:10011800D8B091EF00F093EF00F099EF00F0010EE6
:100128000A6EED0E096E71EF02F004BE9EEF00F04C
:10013800A0EF00F0E2EF00F004BEAEEF00F00450D4
:1001480007E1800E035CD8B0ACEF00F0AEEF00F032
:10015800E2EF00F006BEBAEF00F0065009E1800EAB
:10016800055CD8A0BAEF00F0BCEF00F0E2EF00F0B9
:1001780006BEC7EF00F00604D8B0C5EF00F0C7EF21
:1001880000F0E2EF00F008BECCEF00F0CEEF00F098
:10019800E2EF00F008BEDCEF00F0085007E1800E47
:1001A800075CD8B0DAEF00F0DCEF00F0E2EF00F027
:1001B800010E0A6EB80E096E71EF02F004BEE7EF89
:1001C80000F0E9EF00F02BEF01F004BEF7EF00F0CC
:1001D800045007E1800E035CD8B0F5EF00F0F7EFAC
:1001E80000F02BEF01F006BEFCEF00F0FEEF00F090
:1001F8002BEF01F006BE0CEF01F0065007E1800E70
:10020800055CD8B00AEF01F00CEF01F02BEF01F01C
:1002180008BE18EF01F0085009E1800E075CD8A06D
:1002280018EF01F01AEF01F02BEF01F008BE25EFEF
:1002380001F00804D8B023EF01F025EF01F02BEF0F
:1002480001F0010E0A6E880E096E71EF02F004BE0D
:1002580037EF01F0045009E1800E035CD8A037EFB6
:1002680001F039EF01F078EF01F004BE44EF01F03E
:100278000404D8B042EF01F044EF01F078EF01F048
:1002880006BE50EF01F0065009E1800E055CD8A0CB
:1002980050EF01F052EF01F078EF01F006BE5DEF8C
:1002A80001F00604D8B05BEF01F05DEF01F078EFE4
:1002B80001F008BE62EF01F064EF01F078EF01F0A1
:1002C80008BE72EF01F0085007E1800E075CD8B055
:1002D80070EF01F072EF01F078EF01F0010E0A6E95
:1002E8005D0E096E71EF02F004BE84EF01F0045058
:1002F80009E1800E035CD8A084EF01F086EF01F0DD
:10030800C5EF01F004BE91EF01F00404D8B08FEFFF
:1003180001F091EF01F0C5EF01F006BE96EF01F094
:1003280098EF01F0C5EF01F006BEA6EF01F0065008
:1003380007E1800E055CD8B0A4EF01F0A6EF01F04C
:10034800C5EF01F008BEB2EF01F0085009E1800ED8
:10035800075CD8A0B2EF01F0B4EF01F0C5EF01F0EF
:1003680008BEBFEF01F00804D8B0BDEF01F0BFEF41
:1003780001F0C5EF01F0010E0A6E490E096E71EF2A
:1003880002F004BECAEF01F0CCEF01F012EF02F068
:1003980004BEDAEF01F0045007E1800E035CD8B028
:1003A800D8EF01F0DAEF01F012EF02F006BEE6EF47
:1003B80001F0065009E1800E055CD8A0E6EF01F0D7
:1003C800E8EF01F012EF02F006BEF3EF01F00604C9
:1003D800D8B0F1EF01F0F3EF01F012EF02F008BE30
:1003E800FFEF01F0085009E1800E075CD8A0FFEF8D
:1003F80001F001EF02F012EF02F008BE0CEF02F07C
:100408000804D8B00AEF02F00CEF02F012EF02F085
:10041800010E0A6E250E096E71EF02F004BE1EEF82
:1004280002F0045009E1800E035CD8A01EEF02F030
:1004380020EF02F071EF02F004BE2BEF02F004048B
:10044800D8B029EF02F02BEF02F071EF02F006BEF0
:1004580037EF02F0065009E1800E055CD8A037EFAF
:1004680002F039EF02F071EF02F006BE44EF02F03D
:100478000604D8B042EF02F044EF02F071EF02F048
:1004880008BE50EF02F0085009E1800E075CD8A0C2
:1004980050EF02F052EF02F071EF02F008BE5DEF8C
:1004A80002F00804D8B05BEF02F05DEF02F071EFE4
:1004B80002F0010E0A6E080E096E71EF02F071EF7C
:1004C80002F071EF02F071EF02F071EF02F071EFDC
:1004D80002F071EF02F071EF02F0CE500924BB6E0A
:1004E800CF500A20BC6E000E026E050E016E7FEC26
:1004F80002F094821200840ED56E01040210D8A472
:1005080088EF02F08AEF02F090EF02F0F30ED76E58
:10051800CA0ED66E32EF03F0020E01180210D8A4EC
:1005280098EF02F09AEF02F0A0EF02F0E70ED76E14
:10053800950ED66E32EF03F0030E01180210D8A400
:10054800A8EF02F0AAEF02F0B0EF02F0DB0ED76ED0
:10055800600ED66E32EF03F0040E01180210D8A414
:10056800B8EF02F0BAEF02F0C0EF02F0CF0ED76E8C
:100578002B0ED66E32EF03F0050E01180210D8A428
:10058800C8EF02F0CAEF02F0D0EF02F0C20ED76E49
:10059800F60ED66E32EF03F0060E01180210D8A43C
:1005A800D8EF02F0DAEF02F0E0EF02F0B60ED76E05
:1005B800C10ED66E32EF03F0070E01180210D8A450
:1005C800E8EF02F0EAEF02F0F0EF02F0AA0ED76EC1
:1005D8008C0ED66E32EF03F0080E01180210D8A464
:1005E800F8EF02F0FAEF02F000EF03F09E0ED76E7C
:1005F800570ED66E32EF03F0090E01180210D8A478
:1006080008EF03F00AEF03F010EF03F0920ED76E35
:10061800220ED66E32EF03F00A0E01180210D8A48B
:1006280018EF03F01AEF03F032EF03F0850ED76EE0
:10063800ED0ED66E32EF03F032EF03F032EF03F037
:1006480032EF03F032EF03F032EF03F032EF03F052
:1006580032EF03F032EF03F032EF03F0F29435EFAC
:1006680003F0F2A43AEF03F03CEF03F035EF03F0A8
:100678003EEF03F01200D08ED38CD38AD398000EAD
:10068800046E000E036E000E066E000E056E000E60
:10069800086E000E076E09EC00F0000E046E800E66
:1006A800036E000E066E000E056E000E086E000E3C
:1006B800076E09EC00F0000E046E000E036E000ECB
:1006C800066E800E056E000E086E000E076E09ECB1
:1006D80000F0000E046E000E036E000E066E000E93
:1006E800056E000E086E800E076E09EC00F0000E15
:1006F800046E800E036E000E066E800E056E000EF0
:10070800086E000E076E09EC00F0000E046E800EF5
:10071800036E000E066E000E056E000E086E800E4B
:10072800076E09EC00F0000E046E000E036E000E5A
:10073800066E800E056E000E086E800E076E09ECC0
:1007480000F0000E046E800E036E000E066E800E22
:10075800056E000E086E800E076E09EC00F0B3EF10
:1007680003F007EF00F0000E0A6E000E096E000E8F
:10077800BC6E000EBB6E9492810EB16E810ECD6E72
:10078800020EBA6EA280A190A080C00EF2121200D2
:100798000600A1A0D2EF03F0D4EF03F0DDEF03F0E1
:1007A800A1900950BB260A50BC22DDEF03F0DDEF13
:1007B80003F00B9211000A6A096A0B900B92000170
:0407C8003FEF03F00C
:020000040020DA
:08000000FFFFFFFFFFFFFFFF00
:020000040030CA
:0E000000FF881F00FF8381FF0FC00FE00F403D
:00000001FF
