:020000040000FA
:04000000CBEF3FF013
:107F96000001E6EF3FF001C089FF03C08AFF8B6A4C
:107FA600080EE8CF8CFF8D6A8BB08D2A8B328A3211
:107FB6008DB08A8E8AA002D089508B268C2EF3D75C
:107FC6008ACF01F01200000E046E0C0E036E000E36
:107FD600066E0A0E056E03C001F004C002F005C06D
:107FE60003F006C004F0CEEC3FF001C001F002C081
:0A7FF60002F0FCEF3FF000EF00F096
:020000040020DA
:08000000FFFFFFFFFFFFFFFF00
:020000040030CA
:0E000000FF071F1FFF8385FF0FC00FE00F409B
:00000001FF
