:020000040000FA
:0400000007EF00F016
:10000800198209ED00F066EF00F00600D9CF17F06D
:10001800DACF18F09EAC13EF00F015EF00F038EFD0
:1000280000F0D8901534D96E1634DA6E010ED92640
:10003800000EDA22C3CFDEFFC4CFDDFF154A162A31
:100048000B0E15181610D8A42CEF00F02EEF00F0A8
:1000580034EF00F0000E166E000E156E34EF00F04F
:100068009E9CC2804AEF00F0A1A03DEF00F03FEF58
:1000780000F04AEF00F0A1907A0EBC6E120EBB6E33
:100088004AEF00F04AEF00F04AEF00F018C0DAFF3C
:1000980017C0D9FF19921100C29AC288C286C284B9
:1000A800C292C2809684C282C19AC198C084C0821A
:1000B800C080C09AC098C086C08E9D8C9F8CD08E00
:1000C800F28E120000EE01F0160EEE6AE806FDE16F
:1000D80019901992000171EF00F050EC00F07BECE0
:1000E80000F083EC00F077EF00F007EF00F00B0E64
:1000F800BA6EA0807A0EBC6E120EBB6E1200C90ECC
:04010800B16E1200C2
:020000040020DA
:08000000FFFFFFFFFFFFFFFF00
:020000040030CA
:0E000000FF081F1EFF8381FF0FC00FE00F409F
:00000001FF
