:020000040000FA
:040000003CEF00F0E1
:0600080064825EED0CF0C5
:100018006480D8CF07F0E8CF08F0E0CF09F0D9CF57
:100028000AF0DACF0BF09EAA1CEF00F01EEF00F0EA
:1000380030EF00F0ABA223EF00F025EF00F02AEF3D
:1000480000F0AB9800F0AB882AEF00F0D5EC0DF08B
:1000580030EF00F030EF00F00BC0DAFF0AC0D9FF34
:1000680009C0E0FF08C0E8FF07C0D8FF649010008F
:04007800C0EF0CF0D9
:10060000006D757369632031006D75736963203205
:100610000062726561746865004D6F646531004DFC
:100620006F646532004D6F6465330020474700708A
:100630000071007300001D50800B266E1D501D249C
:100640002C6E1CAE26EF03F028EF03F02BEF03F027
:100650002C802BEF03F02C50D8B431EF03F033EFA4
:1006600003F048EF03F02C28D8A439EF03F03BEF58
:1006700003F045EF03F0000E1A6E000E1B6E000E25
:100680001C6E000E1D6E45EF03F01C8E52EF03F042
:10069000000E1A6E000E1B6E000E1C6E000E1D6EFC
:1006A00052EF03F02150800B261A215021242B6E8B
:1006B00020AE5DEF03F05FEF03F062EF03F02B80FD
:1006C00062EF03F02B50D8B468EF03F06AEF03F049
:1006D0007FEF03F02B28D8A470EF03F072EF03F044
:1006E0007CEF03F0000E1E6E000E1F6E000E206EDB
:1006F000000E216E7CEF03F0208E87EF03F0000EDA
:100700001E6E000E1F6E000E206E000E216E2B500E
:10071000D8B48DEF03F08FEF03F099EF03F02C5076
:10072000D8A495EF03F097EF03F0A5EF03F099EF4E
:1007300003F0000E1A6E000E1B6E000E1C6E000EF3
:100740001D6E51EF05F051EF05F020501A02F3CF66
:1007500031F0F4CF32F03150276E286A296A2A6AC4
:1007600032502D6E2E6A2F6A306A1F501B02F3CF53
:1007700031F0F4CF32F031502726000E2822292202
:100780002A2232502D26000E2E222F2230221E50D9
:100790001C02F3CF31F0F4CF32F031502726000E97
:1007A000282229222A2232502D26000E2E222F22E4
:1007B000302229C02AF028C029F027C028F0276A53
:1007C0001E501B02F3CF31F0F4CF32F03150272608
:1007D00032502822000E2922000E2A221F501A020F
:1007E000F3CF31F0F4CF32F03150272632502822A7
:1007F000000E2922000E2A2229C02AF028C029F042
:1008000027C028F0276A1E501A02F3CF31F0F4CF28
:1008100032F03150272632502822000E2922000EB5
:100820002A2220501B02F3CF31F0F4CF32F03150A6
:100830002D2632502E22000E2F22000E30221F5065
:100840001C02F3CF31F0F4CF32F031502D2632506C
:100850002E22000E2F22000E302220501C02F3CF39
:1008600031F0F4CF32F03150226E3250236E246AD0
:10087000256A24C025F023C024F022C023F0226A78
:1008800022502D2623502E2224502F222550302254
:1008900027C022F028C023F029C024F02AC025F068
:1008A000190E58EF04F0D890253224322332223228
:1008B000E82E53EF04F022502D2623502E222450F0
:1008C0002F222550302229C02AF028C029F027C025
:1008D00028F0276A2B502CC022F0236A2226000E13
:1008E0002322820E2224316EFF0E2320326E90EFDF
:1008F00004F0D8902D362E362F3630362AAE83EFC0
:1009000004F085EF04F086EF04F02D80D8902736B0
:10091000283629362A363106D8A0320690EF04F060
:100920002FAE95EF04F097EF04F079EF04F099EF14
:1009300004F0000E2B6E2AAEA0EF04F0A2EF04F03C
:10094000CAEF04F0FF0E2714226EFF0E2814236E48
:10095000FF0E2914246E7F0E2A14256E22502310B8
:1009600024102510D8B4B7EF04F0B9EF04F0BDEFB0
:1009700004F0010E2B6ECAEF04F02DA0C2EF04F0BC
:10098000C4EF04F0CAEF04F0010E2B6ECAEF04F0BE
:10099000CAEF04F02B50D8B4D0EF04F0D2EF04F03B
:1009A000FAEF04F0010E2D26000E2E222F22302207
:1009B00030A0DDEF04F0DFEF04F0FAEF04F02DC01B
:1009C00022F02EC023F02FC024F030C025F02534B3
:1009D000253224322332223222C02DF023C02EF0C1
:1009E00024C02FF025C030F0314A322AFAEF04F04B
:1009F000FAEF04F032BE05EF05F0325008E131287D
:100A0000D8A005EF05F007EF05F011EF05F0000E97
:100A10002D6E000E2E6E800E2F6E7F0E306E45EF07
:100A200005F032BE1EEF05F0325006E13104D8B0B9
:100A30001CEF05F01EEF05F02AEF05F0000E2D6EFD
:100A4000000E2E6E000E2F6E000E306E000E266E03
:100A500045EF05F031C02CF0FF0E2D16FF0E2E16BF
:100A60007F0E2F16000E30162CA039EF05F03BEF4D
:100A700005F03EEF05F02F8E3EEF05F0D8902C30BC
:100A8000306E45EF05F045EF05F0265030122DC0D1
:100A90001AF02EC01BF02FC01CF030C01DF051EF1B
:100AA00005F0120071EC0EF0000E3F6E010E3E6E6E
:100AB0005AEF05F04C0E0E6E000E0F6E9EEC0EF00F
:100AC0000CC010F00DC011F0B0EC0DF0480449104E
:100AD000D8A46DEF05F06FEF05F0A0EF05F04C0E18
:100AE0000C6E000E0D6E61EC0DF0090E0C180D1061
:100AF000D8A47DEF05F07FEF05F083EF05F071ECF2
:100B00000AF05AEF05F0310E0E6E060E0F6E4C0E07
:100B1000106E000E116E00EC0BF00E500F10D8A4EA
:100B200094EF05F096EF05F05AEF05F0000E496ED0
:100B3000000E486E5AEF05F05AEF05F05AEF05F037
:100B400046044710D8A4A7EF05F0A9EF05F0DDEFA4
:100B500005F0110E0E6E060E0F6E4C0E106E000E8E
:100B6000116E00EC0BF00E500F10D8A4BAEF05F088
:100B7000BCEF05F0C0EF05F0E2EC07F05AEF05F02E
:100B8000310E0E6E060E0F6E4C0E106E000E116EB4
:100B900000EC0BF00E500F10D8A4D1EF05F0D3EFFE
:100BA00005F05AEF05F0000E476E000E466E5AEF44
:100BB00005F05AEF05F05AEF05F044044510D8A4AB
:100BC000E4EF05F0E6EF05F017EF06F04C0E0C6EC3
:100BD000000E0D6E61EC0DF0070E0C180D10D8A470
:100BE000F4EF05F0F6EF05F0FAEF05F0DEEC06F0B5
:100BF0005AEF05F0310E0E6E060E0F6E4C0E106E93
:100C0000000E116E00EC0BF00E500F10D8A40BEF7D
:100C100006F00DEF06F05AEF05F0000E456E000EDF
:100C2000446E5AEF05F05AEF05F05AEF05F0310E19
:100C30000E6E060E0F6E4C0E106E000E116E00EC56
:100C40000BF00E500F10D8A428EF06F02AEF06F094
:100C500032EF06F0FDEC0CF0000E3F6E010E3E6E22
:100C600078EF06F0330E0E6E060E0F6E4C0E106E01
:100C7000000E116E00EC0BF00E500F10D8A443EFD5
:100C800006F045EF06F053EF06F0FDEC0CF0330EE6
:100C90000D6E060E0E6E32EC0DF0000E3F6E000E65
:100CA0003E6E78EF06F02F0E0E6E060E0F6E4C0E97
:100CB000106E000E116E00EC0BF00E500F10D8A449
:100CC00064EF06F066EF06F078EF06F0FDEC0CF04E
:100CD0002F0E0D6E060E0E6E32EC0DF0000E3F6EF6
:100CE000000E3E6E78EF06F078EF06F078EF06F033
:100CF0003E043F10D8A47FEF06F081EF06F05AEFD4
:100D000005F0190E0E6E060E0F6E4C0E106E000ED4
:100D1000116E00EC0BF00E500F10D8A492EF06F0FD
:100D200094EF06F09CEF06F0FDEC0CF0000E496E1F
:100D3000010E486E5AEF05F01F0E0E6E060E0F6E76
:100D40004C0E106E000E116E00EC0BF00E500F10DA
:100D5000D8A4ADEF06F0AFEF06F0B7EF06F0FDEC6C
:100D60000CF0000E476E010E466E5AEF05F0250E90
:100D70000E6E060E0F6E4C0E106E000E116E00EC15
:100D80000BF00E500F10D8A4C8EF06F0CAEF06F013
:100D90005AEF05F0FDEC0CF0000E456E010E446EAE
:100DA0005AEF05F05AEF05F05AEF05F05AEF05F04B
:100DB0005AEF05F05AEF05F03CEF00F09492810EE7
:100DC000B16E810ECD6E020EBA6EA280A190A0808F
:100DD000C00EF212C0EF07F0010E0E6E060E0F6E7F
:100DE0004C0E106E000E116E00EC0BF00E500F103A
:100DF000D8A4FDEF06F0FFEF06F057EF07F0000E66
:100E0000186E000E176E00C140F001C141F0CE50C7
:100E10004024BB6ECF504120BC6E35EF07F0D89018
:100E20001734D96E1834DA6E000ED926010EDA2284
:100E3000DECF40F0DDCF41F0010E1714156E000E2D
:100E40001814166ED89015361636600E1524D96E05
:100E5000000E1620DA6EDECF0CF0DDCF0DF07DEC4B
:100E60000BF0174A182A35EF07F018BE41EF07F0CC
:100E7000185009E11E0E175CD8A041EF07F043EFB0
:100E800007F00FEF07F045EF07F03F0EF216000EE8
:100E90000D6E030E0C6E7DEC0BF0000E0D6E030E4E
:100EA0000C6E7DEC0BF0C00EF212C0EF07F0090ED5
:100EB0000E6E060E0F6E4C0E106E000E116E00ECD4
:100EC0000BF00E500F10D8A468EF07F06AEF07F090
:100ED000C0EF07F0000E186E000E176E00C140F054
:100EE00001C141F0CE504024BB6ECF504120BC6EBA
:100EF0009AEF07F0D8901734D96E1834DA6EA60E30
:100F0000D926000EDA22DECF40F0DDCF41F0D890B6
:100F10001734D96E1834DA6E800ED926000EDA2214
:100F2000DECF0CF0DDCF0DF07DEC0BF0174A182A68
:100F30009AEF07F018BEA6EF07F0185009E1130E5C
:100F4000175CD8A0A6EF07F0A8EF07F07AEF07F03C
:100F5000AAEF07F03F0EF216000E0D6E030E0C6E98
:100F60007DEC0BF0000E0D6E030E0C6E7DEC0BF0A5
:100F7000C00EF212C0EF07F0C0EF07F0C0EF07F0AD
:100F80009EEC0EF00CC00EF00DC00FF0310E106E86
:100F9000060E116E00EC0BF00E500F10D8A4D3EF1C
:100FA00007F0D5EF07F0ECEF06F0D7EF07F0000EF3
:100FB000BC6E000EBB6E000E456E000E446EFDEC66
:100FC0000CF01200FDEC0CF0000E3D6E000E3C6EBD
:100FD000000E376E000E366E000E386E000E396E43
:100FE000000E3A6E000E3B6EBAEF08F0FDEC0CF00E
:100FF000000E0D6E000E0C6EF9EC0DF00CC036F00C
:101000000DC037F036C00CF037C00DF0000E0DBE2D
:10101000FF0E0E6E0F6E010EDAEC08F00CC01AF027
:101020000DC01BF00EC01CF00FC01DF00A0E1E6E8E
:10103000280E1F6EA00E206E3B0E216E1BEC03F0DF
:101040001AC038F01BC039F01CC03AF01DC03BF08C
:1010500038C00CF039C00DF03AC00EF03BC00FF0B4
:10106000C8EC09F00C50280DF3CFBEFF63EF08F079
:10107000000E3D6E000E3C6E3DBE48EF08F03D5048
:1010800009E1640E3C5CD8A048EF08F04AEF08F094
:101090004EEF08F060EF08F060EF08F03C4A3D2AA0
:1010A0003DBE5CEF08F03D5009E1640E3C5CD8A009
:1010B0005CEF08F05EEF08F04EEF08F060EF08F02C
:1010C000BE2A63EF08F0C60EBE6469EF08F06BEF4E
:1010D00008F038EF08F09AEF08F09AEF08F0000EE9
:1010E0003D6E000E3C6E3DBE7FEF08F03D5009E1C5
:1010F000640E3C5CD8A07FEF08F081EF08F085EF2C
:1011000008F097EF08F097EF08F03C4A3D2A3DBE03
:1011100093EF08F03D5009E1640E3C5CD8A093EFDA
:1011200008F095EF08F085EF08F097EF08F0BE069D
:101130009AEF08F0BE50336E346A38C00CF039C0F4
:101140000DF03AC00EF03BC00FF0C8EC09F0335080
:101150000C5C0D50800A356E3450800A3558D8A08A
:10116000B4EF08F0B6EF08F06FEF08F0BAEF08F050
:10117000BAEF08F09EEC0EF00CC00EF00DC00FF0B0
:10118000310E106E060E116E00EC0BF00E500F10AB
:10119000D8A4CDEF08F0CFEF08F0F6EF07F0D1EFCD
:1011A00008F0000EBF6E000EBE6E000E476E000E01
:1011B000466E1200146E1450D8B4E1EF08F0E3EF5D
:1011C00008F005EF09F00FBEEAEF08F0E8EF08F0CD
:1011D00005EF09F00CC010F00DC011F00EC012F0B8
:1011E0000FC013F0101E111E121E131E102A000E27
:1011F00011221222132210C016F011C017F012C0D3
:1012000018F013C019F00FEF09F00CC016F00DC064
:1012100017F00EC018F00FC019F00FEF09F00C50C6
:101220000D100E100F10D8A418EF09F01AEF09F0E6
:1012300026EF09F0000E0C6E000E0D6E000E0E6E05
:10124000000E0F6EC7EF09F0C7EF09F0960E156E8E
:1012500032EF09F0152AD8901932183217321632A7
:1012600032EF09F0000E1614106E000E1714116EF6
:10127000000E1814126EFE0E1914136E1050111079
:1012800012101310D8A447EF09F049EF09F02AEF24
:1012900009F059EF09F059EF09F0152A010E162649
:1012A000000E172218221922D8901932183217323C
:1012B0001632000E1614106E000E1714116E000E6A
:1012C0001814126EFF0E1914136E10501110121014
:1012D0001310D8A46EEF09F070EF09F04DEF09F08C
:1012E0007CEF09F07CEF09F01506D890163617361A
:1012F000183619367CEF09F018BE81EF09F083EF3C
:1013000009F08DEF09F0020E156089EF09F08BEFFF
:1013100009F074EF09F08DEF09F015B092EF09F0C4
:1013200094EF09F097EF09F0189E97EF09F0D89025
:10133000153215C010F0116A126A136A10C013F04A
:10134000126A116A106A10501612115017121250B8
:101350001812135019121450D8B4B1EF09F0B3EFAA
:1013600009F0BDEF09F00FBEBAEF09F0B8EF09F0D0
:10137000BDEF09F0198EBDEF09F016C00CF017C0D3
:101380000DF018C00EF019C00FF0C7EF09F01200F1
:101390000E340F34156E1550D8A4D1EF09F0D3EFE9
:1013A00009F0DFEF09F0000E0C6E000E0D6E000E5E
:1013B0000E6E000E0F6E70EF0AF070EF0AF00CC0A8
:1013C00010F00DC011F00EC012F00FC013F0200E7F
:1013D000EFEF09F0D8901332123211321032E82EAA
:1013E000EAEF09F01050146E0E8EFF0E0C16FF0E71
:1013F0000D16FF0E0E16000E0F16960E155E15BE7C
:1014000006EF0AF004EF0AF02AEF0AF01550800AFE
:10141000970FD8B00EEF0AF010EF0AF01EEF0AF0A7
:10142000000E0C6E000E0D6E000E0E6E000E0F6E96
:1014300070EF0AF070EF0AF01EEF0AF0D8900F324A
:101440000E320D320C32153E1EEF0AF054EF0AF048
:1014500054EF0AF01F0E156430EF0AF032EF0AF075
:1014600048EF0AF0000E0C6E000E0D6E000E0E6EB0
:10147000000E0F6E70EF0AF070EF0AF048EF0AF0FE
:10148000D8900C360D360E360F36150648EF0AF09A
:101490001550D8A44EEF0AF050EF0AF040EF0AF0D2
:1014A00054EF0AF054EF0AF01450D8B45AEF0AF08F
:1014B0005CEF0AF066EF0AF00F1E0E1E0D1E0C6C9C
:1014C000000E0D220E220F2266EF0AF00CC00CF067
:1014D0000DC00DF00EC00EF00FC00FF070EF0AF04F
:1014E0001200D00E5224426E436AFF0E4322D00EE9
:1014F0005424156E166AFF0E1622FDEC0CF0E2EF76
:101500000AF0FDEC0CF042044310D8A48AEF0AF074
:101510008CEF0AF092EF0AF08C808C928C948C966F
:10152000D0EF0AF0020E42184310D8A49AEF0AF046
:101530009CEF0AF0A2EF0AF08C808C828C948C963F
:10154000D0EF0AF0030E42184310D8A4AAEF0AF015
:10155000ACEF0AF0B2EF0AF08C808C828C848C960F
:10156000D0EF0AF0040E42184310D8A4BAEF0AF0E4
:10157000BCEF0AF0C2EF0AF08C808C828C848C86DF
:10158000D0EF0AF02B0E0D6E060E0E6E32EC0DF043
:10159000D0EF0AF0D0EF0AF0D0EF0AF0D0EF0AF067
:1015A00015C00CF016C00DF07DEC0BF08C908C92F9
:1015B0008C948C9615C00CF016C00DF07DEC0BF0E1
:1015C000E2EF0AF09EEC0EF00CC00EF00DC00FF032
:1015D000310E106E060E116E00EC0BF00E500F1057
:1015E000D8A4F5EF0AF0F7EF0AF081EF0AF08C903B
:1015F0008C928C948C96000E496E000E486E1200F0
:1016000008EF0BF00E4A0F2A104A112A08EF0BF0D0
:1016100010C0F6FF11C0F7FFF86A050EF76403D09B
:101620000800F55005D0F6CFE1FFF7CFE2FFE75015
:10163000126E0EC0F6FF0FC0F7FFF86A050EF764D2
:1016400003D00800F55005D0F6CFE1FFF7CFE2FF59
:10165000E7501218D8A42FEF0BF031EF0BF04DEF3D
:101660000BF00EC0F6FF0FC0F7FFF86A050EF76427
:1016700003D00800F55005D0F6CFE1FFF7CFE2FF29
:10168000E7500009D8A447EF0BF049EF0BF002EF49
:101690000BF04DEF0BF04DEF0BF010C0F6FF11C04B
:1016A000F7FFF86A050EF76403D00800F55005D07F
:1016B000F6CFE1FFF7CFE2FFE750126E136A121E7A
:1016C000131E124A132A0EC0F6FF0FC0F7FFF86A66
:1016D000050EF76403D00800F55005D0F6CFE1FF02
:1016E000F7CFE2FFE750146E145012240E6E000E76
:1016F00013200F6E7CEF0BF01200D3EF0BF0840E73
:10170000D56EE10ED76E7B0ED66EF29488EF0BF09D
:10171000F2A48DEF0BF08FEF0BF088EF0BF0F1EFF1
:101720000BF0F1EF0BF0840ED56EC20ED76EF70EF4
:10173000D66EF2949CEF0BF0F2A4A1EF0BF0A3EFA6
:101740000BF09CEF0BF0F1EF0BF0F1EF0BF0840ED0
:10175000D56EA40ED76E730ED66EF294B0EF0BF06A
:10176000F2A4B5EF0BF0B7EF0BF0B0EF0BF0F1EF29
:101770000BF0F1EF0BF0840ED56E850ED76EEF0EE9
:10178000D66EF294C4EF0BF0F2A4C9EF0BF0CBEFDE
:101790000BF0C4EF0BF0F1EF0BF0F1EF0BF0F1EF0A
:1017A0000BF0F1EF0BF00CC00EF00DC00FF00F506E
:1017B000000AD8B4DEEF0BF0F1EF0BF00E50010A87
:1017C000D8B47FEF0BF0030AD8B493EF0BF0010A03
:1017D000D8B4A7EF0BF0070AD8B4BBEF0BF0F1EFCA
:1017E0000BF01200000E066E02BEFBEF0BF0F9EFDD
:1017F0000BF003EF0CF0016C021ED8B0022A010EB0
:10180000066E03EF0CF004BE0AEF0CF008EF0CF0CC
:1018100010EF0CF0036C041ED8B0042A10EF0CF08B
:1018200003500410D8B417EF0CF019EF0CF049EF87
:101830000CF0010E056E23EF0CF0D8900336043641
:10184000052A23EF0CF004AE28EF0CF02AEF0CF081
:101850001DEF0CF02EEF0CF02EEF0CF00350015C9E
:1018600004500258D8A037EF0CF039EF0CF03FEFDE
:101870000CF00350015E0450025A3FEF0CF0D89078
:1018800004320332052E2EEF0CF049EF0CF049EF35
:101890000CF00650D8B44FEF0CF051EF0CF057EFAE
:1018A0000CF0016C021ED8B0022A57EF0CF001C0F8
:1018B00001F002C002F05DEF0CF0120006004604D9
:1018C0004710D8A466EF0CF068EF0CF07DEF0CF039
:1018D0009EA46DEF0CF06FEF0CF0BEEF0CF0827475
:1018E0009E94000EB36E000EB26EBEEF0CF0BEEF13
:1018F0000CF0BEEF0CF0BEEF0CF044044510D8A481
:1019000084EF0CF086EF0CF09AEF0CF0A1A08BEFB7
:101910000CF08DEF0CF0BEEF0CF0A1904050BB2608
:101920004150BC22BEEF0CF0BEEF0CF0BEEF0CF04D
:10193000BEEF0CF09EA49FEF0CF0A1EF0CF0A9EF0E
:101940000CF082749E94000EB36E000EB26EA9EF7E
:101950000CF0A1A0AEEF0CF0B0EF0CF0BEEF0CF06D
:101960008274A190000EB36E000EB26EBEEF0CF04A
:10197000BEEF0CF0BEEF0CF0BEEF0CF06492110065
:10198000380EF66E1C0EF76E000EF86E01EE00F0CB
:1019900010EE3CF00900F5CFEEFFE550E150FAE122
:1019A000140EF66E1B0EF76E000EF86E00EE80F051
:1019B00010EE4CF00900F5CFEEFFE550E150FAE1F2
:1019C0005A0EF66E1D0EF76E000EF86E00EE60F009
:1019D00010EE04F00900F5CFEEFFE550E150FAE11A
:1019E00000EE40F0200EEE6AE806FDE1649064929D
:1019F000000EF86E000152EF05F0000E0D6E000EA5
:101A00000C6E0DBE0DEF0DF00D5009E10A0E0C5CD1
:101A1000D8A00DEF0DF00FEF0DF013EF0DF02DEF3F
:101A20000DF02DEF0DF0560E0C24D96E000E0D208A
:101A3000DA6E000EDF6E0C4A0D2A0DBE29EF0DF096
:101A40000D5009E10A0E0C5CD8A029EF0DF02BEF28
:101A50000DF013EF0DF02DEF0DF0000E4B6E000E9C
:101A60004A6E1200000E126E000E116E4AEF0DF05B
:101A700011500D240F6E12500E20106E0FC0F6FF85
:101A800010C0F7FF0800F55080EC0EF0114A122A42
:101A90004AEF0DF011500D240F6E12500E20106EF3
:101AA0000FC0F6FF10C0F7FF0800F5500009D8A4DA
:101AB0005CEF0DF05EEF0DF038EF0DF060EF0DF024
:101AC00012000CC010F00DC011F06BEF0DF00C4ABD
:101AD0000D2A6BEF0DF00CC0D9FF0DC0DAFFDF50FF
:101AE000D8A475EF0DF077EF0DF067EF0DF079EFFB
:101AF0000DF010C00EF011C00FF00E1E0F1E0E4A9A
:101B00000F2A0C500E240C6E0D500F200D6E89EF15
:101B10000DF01200010001000200010001000100AF
:101B200001000200010001000100010002000100AB
:101B30000100010001000300010049018801B80112
:101B4000B8010000B801EE010B020B0200000B020D
:101B50004B02EE01EE010000B8018801B80100005F
:101B600010C012F011C013F00EC014F00FC015F029
:101B7000BCEF0DF0BCEF0DF012C0D9FF13C0DAFFBF
:101B8000124A132A14C0E1FF15C0E2FF144A152AB5
:101B9000DFCFE7FFE750D8A4D0EF0DF0D2EF0DF084
:101BA000BCEF0DF0D4EF0DF01200560E4A24D96EA2
:101BB000000E4B20DA6EAECFDFFF560E4A24D96EF0
:101BC000000E4B20DA6EDF508FEC0EF04A4A4B2AA3
:101BD0004AC001F04BC002F0000E046E0A0E036E04
:101BE000F2EC0BF001C04AF002C04BF0F8EF0DF040
:101BF0001200C294C296C298C29AC282C28001EFF9
:101C00000EF0C2B206EF0EF008EF0EF001EF0EF08C
:101C10000AEF0EF0C350C4CF0EF00F6A0EC00FF0E3
:101C20000E6A0E10106E0F50116E10C00CF011C025
:101C30000DF01BEF0EF012000F0393029302000051
:101C4000BA024B024B0200000B024B029302BA0293
:101C50000F030F030F0300000F0393029302000012
:101C6000BA024B024B0200000B0293020F030F0358
:101C7000930200009494000ECC6E810EB16E810E22
:101C8000CD6EC70ECB6E000EBE6E050ECA6E0C0E6C
:101C9000BD6EC00EF2129E949F849D841200948C9F
:101CA000948EAC98B896AC840C0EAF6EAB8E9E88BA
:101CB0009E9AAC8AAB889D989F989D8A9F9A1200A5
:101CC00092680E0EC16EC08EC050F80B0409C06E33
:101CD000C050C70B1009C06E000EC46E000EC36E5C
:101CE0001200A9EC0EF04FEC0EF03AEC0EF060ECA6
:101CF0000EF0A5EC0EF0000E956E000E836E120035
:101D00000C6E83EF0EF0ACA288EF0EF08AEF0EF0AF
:101D100083EF0EF08CEF0EF00CC0ADFF1200016EE1
:101D200092EF0EF0ACA297EF0EF099EF0EF092EF5B
:101D30000EF09BEF0EF001C0ADFF1200560E0C6EC0
:101D4000000E0D6EA4EF0EF01200D38CD38AD39840
:0E1D50001200D08EF28EF28C12000100000004
:020000040020DA
:08000000FFFFFFFFFFFFFFFF00
:020000040030CA
:0E000000FF881F00FF8381FF0FC00FE00F403D
:00000001FF
