:020000040000FA
:0200000038D0F6
:020002000000FC
:0800080000D0F2B202D09EB25A
:1000100013D08946892A89B807D089B618D089B4FF
:1000200013D089B20ED008D0896ABD98BD9ABE2A75
:10003000130EBE6201D03FD02AEC00F08C709E926D
:100040001000BD88BD9AF8D7BD98BD8AF5D7BD8888
:10005000BD8AF2D7B40E256EC80E246E00000000D3
:1000600000000000242E2EEF00F0252E2CEF00F0D3
:100070001200D39CD38AD388070ECA6E9B0ECB6E18
:10008000896ABD98BD9ABE6A040E89CFBEFF2C0E48
:10009000BD6E946A826A8B84956A836A8C809F8223
:1000A0009E929D82D08EF28EFB0EC16EF288F292ED
:0600B000F18C59EF00F095
:020000040030CA
:0100010008F6
:010002001FDE
:010003001EDE
:010005008179
:010006008178
:010008000FE8
:01000900C036
:01000A000FE6
:01000B00E014
:01000C000FE4
:01000D0040B2
:00000001FF
