:020000040000FA
:0400000046EF00F0D7
:020004000000FA
:080008008380680E256E900E46
:10001000246E0000000000000000242E09EF00F014
:10002000252E07EF00F083908382680E256E900ED8
:10003000246E0000000000000000242E19EF00F0E4
:10004000252E17EF00F083928384680E256E900EA4
:10005000246E0000000000000000242E29EF00F0B4
:10006000252E27EF00F083948386680E256E900E70
:10007000246E0000000000000000242E39EF00F084
:10008000252E37EF00F08396F2921000816A8A6A7B
:100090009380956A836A0F0EC16EF288F292F18C9A
:0600A000F28E51EF00F0AA
:020000040030CA
:0100010008F6
:010002001FDE
:010003001EDE
:010005008377
:010006008178
:010008000FE8
:01000900C036
:01000A000FE6
:01000B00E014
:01000C000FE4
:01000D0040B2
:00000001FF
